:020000040800F2
:10000000C80E0020ED0100082D0200082F02000894
:10001000390200083D02000841020008000000000B
:100020000000000000000000000000004502000881
:100030004702000800000000490200084B020008C7
:10004000070200080702000807020008070200086C
:10005000070200080702000807020008070200085C
:10006000070200080702000807020008070200084C
:1000700007020008232400080702000807020008FE
:10008000070200080702000807020008070200082C
:10009000070200080702000807020008070200081C
:1000A000070200080702000807020008070200080C
:1000B000CF22000807020008070200080702000814
:1000C00007020008070200080702000807020008EC
:1000D00007020008070200080702000807020008DC
:1000E00007020008070200080702000807020008CC
:1000F00007020008070200080702000807020008BC
:1001000007020008070200080702000807020008AB
:10011000070200080702000807020008070200089B
:10012000070200080702000807020008070200088B
:1001300000F002F800F04AF80AA090E8000C8244AF
:100140008344AAF10107DA4501D100F03FF8AFF28C
:10015000090EBAE80F0013F0010F18BFFB1A43F0A5
:1001600001031847A06E0000C06E0000103A24BFC3
:1001700078C878C1FAD8520724BF30C830C144BF0C
:1001800004680C607047000000230024002500264E
:10019000103A28BF78C1FBD8520728BF30C148BFEA
:1001A0000B607047662906F0DC86732905F0018430
:1001B000002070471FB505F049FC04000020002115
:1001C00006F042F9E0601FBD10B510BD05F03AFD24
:1001D0001146FFF7EFFF04F099FF05F058FD03B457
:1001E000FFF7F2FF03BC02F097F9000009488047CF
:1001F00009480047FEE7FEE7FEE7FEE7FEE7FEE709
:10020000FEE7FEE7FEE7FEE704480549054A064B20
:10021000704700002F03000831010008C8080020C3
:10022000C80E0020C80A0020C80A0020704702E05B
:10023000012006490860FBE700BFFEE700BFFEE7BC
:1002400000BFFEE77047704770477047040000200A
:100250000CB50020019000906C48006840F480309C
:100260006A49086000BF6948006800F400300090E7
:100270000198401C0190009818B90198B0F5A06F42
:10028000F1D16248006800F4003010B10120009004
:1002900001E0002000900098012843D15C480068EC
:1002A00040F010005A4908600846006820F003003A
:1002B00008600846006840F0020008605348406843
:1002C000524948600846406848600846406840F423
:1002D000806048600846406820F47C10486008460A
:1002E000406840F4E81048600846006840F08070BC
:1002F000086000BF4548006800F000700028F9D091
:100300004248406820F00300404948600846406881
:1003100040F00200486000BF3C48406800F00C001C
:100320000828F9D10CBD10B5FFF792FF10BD10B52C
:100330003648006840F001003449086008464068CB
:10034000344908403149486008460068324908404D
:100350002E4908600846006820F48020086008469E
:10036000406820F4FE0048604FF41F008860FFF7EB
:10037000DAFF4FF000602949086010BD10B5002178
:1003800000200022214B5B6803F00C0121B10429FD
:1003900006D0082928D107E0214B224C236027E012
:1003A0001F4B204C236023E0184B5B6803F4701054
:1003B000164B5B6803F48032022303EB904022B9B2
:1003C000194B4343174C23600DE0104B5B6803F45B
:1003D000003323B1144B4343124C236003E0104B12
:1003E0004343104C236003E00D4B0E4C236000BFD1
:1003F00000BF064B5B68C3F303130C4CE15C094B75
:100400001B68CB40074C236010BD00000010024069
:10041000002002400000FFF8FFFFF6FE08ED00E0BC
:1004200000127A000800002000093D000C000020A6
:1004300010B56FF0040000F0B4F82E4800682E49A3
:10044000B0FBF1F02D4908700846007800EB400140
:10045000C1EBC0104FF6FF7101EAC00028490880C7
:1004600010BD0146254A12784A434FF0E0235A61F5
:1004700000229A611A46126942F001021A6100BF15
:100480004FF0E022106900F001021AB100F480324E
:10049000002AF5D04FF0E022126922F001024FF05D
:1004A000E0231A6100229A6170470146144A1288BB
:1004B0004A434FF0E0235A6100229A611A461269BA
:1004C00042F001021A6100BF4FF0E022106900F013
:1004D00001021AB100F48032002AF5D04FF0E02278
:1004E000126922F001024FF0E0231A6100229A61A2
:1004F000704700000800002000127A001C00002055
:100500001E00002031490143314A1160704770B527
:10051000002100230F22C47804B32D4C246804F476
:10052000E064C4F5E064210AC1F10403CA404478E0
:1005300004FA03F18478144021430901254C06781C
:10054000A155047804F01F050124AC4005786D1115
:10055000AD0005F1E025C5F8004109E0047804F09C
:100560001F050124AC401C4D0678761145F8264045
:1005700070BD1A4A0A400243154B1B1F1A60704790
:1005800039B1134A121D12680243114B1B1D1A6028
:1005900006E00F4A121D126882430D4B1B1D1A60A4
:1005A0007047042808D14FF0E021096941F00401A7
:1005B0004FF0E022116107E04FF0E021096921F0DE
:1005C00004014FF0E0221161704700000000FA05BD
:1005D0000CED00E000E400E080E100E080FFFF1FA0
:1005E00001684FF6FE721140016000210160416018
:1005F0008160C1608D49884208D18C4908394968B9
:1006000041F00F01894A083A51608AE08749143164
:10061000884208D185490839496841F0F001834A88
:10062000083A51607DE081492831884208D17F49EC
:100630000839496841F470617C4A083A516070E0B9
:100640007A493C31884208D178490839496841F4EF
:100650007041764A083A516063E0744950318842EB
:1006600008D172490839496841F470216F4A083A43
:10067000516056E06D496431884208D16B490839B0
:10068000496841F47001694A083A516049E0674994
:100690007831884208D165490839496841F070616C
:1006A000624A083A51603CE06149884206D1011F24
:1006B000096841F00F01021F116032E05C491431FA
:1006C000884208D15A49091F096841F0F001584A87
:1006D000121F116025E056492831884208D154493B
:1006E000091F096841F47061514A121F116018E036
:1006F0004F493C31884208D14D49091F096841F4EE
:1007000070414B4A121F11600BE049495031884239
:1007100007D14749091F096841F47021444A121F53
:100720001160704710B50022026847F6F0739A43D3
:100730000C6A8B6823430C6923434C6923438C69FF
:100740002343CC6923434C6A23438C6A23431A43D3
:100750000260CB6843600B6883604B68C36010BD68
:100760000021016041608160C1600161416181617E
:10077000C161016241628162704721B1026842F049
:100780000102026004E002684FF6FE731A40026044
:1007900070471AB103680B43036002E003688B43A0
:1007A00003607047416070470146486880B27047F7
:1007B00001460020002201F080531BB11C4B083B76
:1007C0001A6802E0194B083B1A6802EA01030BB1F0
:1007D000012000E00020704700F0805119B1144959
:1007E000091F086002E01149083948607047014656
:1007F0000020002201F080531BB10D4B083B1A680A
:1008000002E00A4B083B1A6802EA01030BB101201F
:1008100000E00020704700F0805119B10449091F21
:10082000086002E00149083948607047080002404A
:100830000804024010B50446CC48844208D1012186
:10084000042000F02DFB0021042000F029FB46E0ED
:10085000C748844208D10121082000F021FB002173
:10086000082000F01DFB3AE0C248844208D1012173
:10087000102000F015FB0021102000F011FB2EE0ED
:10088000BD48844208D10121202000F009FB00214D
:10089000202000F005FB22E0B848844208D1012165
:1008A000402000F0FDFA0021402000F0F9FA16E0A7
:1008B000B348844208D10121802000F0F1FA0021E0
:1008C000802000F0EDFA0AE0AE48844207D1012111
:1008D000801500F0E5FA0021A01500F0E1FA10BD46
:1008E00010B50121084600F0DBFA0021012000F0DC
:1008F000D7FA10BD2DE9F041024600250026002060
:1009000000230024002791F803C00CF00F0591F894
:1009100003C00CF0100CBCF1000F03D091F802C022
:100920004CEA050591F800C0BCF1000F31D0146805
:1009300000202BE04FF0010C0CFA00F3B1F800C0DE
:100940000CEA03069E4220D183004FF00F0C0CFAF4
:1009500003F7BC4305FA03FC4CEA040491F803C016
:10096000BCF1280F06D14FF0010C0CFA00FCC2F8C4
:1009700014C00AE091F803C0BCF1480F05D14FF054
:10098000010C0CFA00FCC2F810C0401C0828D1D39E
:100990001460B1F800C0BCF1FF0F34DD54680020D2
:1009A0002EE000F1080C4FF0010808FA0CF3B1F842
:1009B00000C00CEA03069E4221D183004FF00F0CC9
:1009C0000CFA03F7BC4305FA03FC4CEA040491F863
:1009D00003C0BCF1280F05D100F1080C08FA0CF88F
:1009E000C2F8148091F803C0BCF1480F07D100F1A0
:1009F000080C4FF0010808FA0CF8C2F81080401CEF
:100A00000828CED35460BDE8F0814FF6FF71018015
:100A1000022181700421C170704702460020936852
:100A20000B400BB1012000E00020704701468868B0
:100A300080B2704702460020D3680B400BB1012002
:100A400000E0002070470146C86880B2704701612D
:100A50007047416170470AB1016100E04161704730
:100A6000C16070474FF480320A43826181618261C4
:100A700082698269704702460020434B18684FF62E
:100A80008073184040EA021008433F4B18607047DB
:100A90003E49C8617047F0B50A4600230024002192
:100AA000002500F00046B6F1004F02D1364EF16944
:100AB00001E0354E7168C0F3034583B200F440167F
:100AC000B6F5401F08D121F070612F4E766826F0F0
:100AD00070662D4F7E6012E000F48016B6F5801F20
:100AE00006D1032606FA05F4A14341F0706106E041
:100AF000460D360103FA06F6B14341F0706122B1AA
:100B0000460D360103FA06F6314300F00046B6F111
:100B1000004F02D11C4EF16101E01B4E7160F0BD2F
:100B200030B500228B071C0F0F2303FA04F2164B7B
:100B300008338C1053F824309343134C08348D1031
:100B400044F8253023468C1053F824308C07240FAA
:100B500000FA04F423430C4C08348D1044F825307B
:100B600030BD0A49DC3108607047000000080140D0
:100B7000000C014000100140001401400018014029
:100B8000001C014000200140000001400000204204
:100B9000DF48006840F00100DD4908600846406811
:100BA000DC490840DA49486008460068DA490840EC
:100BB000D74908600846006820F48020086008468D
:100BC000406820F4FE0048604FF41F0088607047C2
:100BD000CF49096821F48031CD4A11601146096876
:100BE00021F480211160B0F5803F03D0B0F5802F53
:100BF0000ED106E0C649096841F48031C44A11604B
:100C000007E0C349096841F4A021C14A116000E02E
:100C100000BF00BF704710B501460022002300202E
:100C20004A11012A02D1BA4C236806E0022A02D1F5
:100C3000B74C236A01E0B64C636A01F01F0201243D
:100C400094401C400CB1012000E0002010BD38B5DC
:100C5000002000900024002500BF3120FFF7DBFFBB
:100C600005460098401C00900098B0F5A06F01D098
:100C7000002DF2D03120FFF7CEFF08B1012400E0B3
:100C80000024204638BD01460020A14A106820F00B
:100C9000F80040EAC10010607047A0490860704742
:100CA000024600209A4B586820F47C1042EA010367
:100CB0001843974B5860704798490866704701463B
:100CC0000020934A506820F00300084350607047AA
:100CD0008F48406800F00C007047014600208C4AA5
:100CE000506820F0F0000843506070470146002033
:100CF000874A506820F4E06008435060704701461E
:100D00000020834A506820F4605040EAC1005060DF
:100D1000704729B17E4A527A02437D4B5A7204E0F1
:100D20007B4A527A82437A4B5A7270477B49D83158
:100D30000860704701460020754A506820F4404022
:100D40000843506070470021714A20321170704A88
:100D500082F82010012802D004280AD104E00121E1
:100D60006B4A2032117005E00521694A203211706A
:100D700000E000BF00BF70476949086070476449E0
:100D8000096A0143624A1162704765494439086043
:100D9000704730B500210022002400235C4D6D68AF
:100DA00005F00C0121B1042905D0082923D105E063
:100DB0005C4D056022E05B4D05601FE0544D6D68A1
:100DC00005F47012524D6D6805F48034022505EB70
:100DD00092421CB9544D554305600BE04C4D6D6873
:100DE00005F400351DB1504D5543056002E04D4DF1
:100DF0005543056002E04B4D056000BF00BF444D08
:100E00006D6805F0F0010909484D6B5C0568DD402F
:100E100045603F4D6D6805F4E061090A434D6B5C28
:100E20004568DD4085603A4D6D6805F46051C90A3A
:100E30003E4D6B5C4568DD40C560354D6D6805F421
:100E40004041890B3A4D6B5CC568B5FBF3F5056114
:100E500030BD29B12E4A526902432D4B5A6104E03C
:100E60002B4A526982432A4B5A61704729B1284A5A
:100E700092690243264B9A6104E0254A92698243B3
:100E8000234B9A61704729B1214AD2690243204B12
:100E9000DA6104E01E4AD26982431D4BDA61704771
:100EA00029B11B4AD2680243194BDA6004E0184AA0
:100EB000D2688243164BDA60704729B1144A12692E
:100EC0000243134B1A6104E0114A12698243104B2A
:100ED0001A61704712494039086070470F49C86469
:100EE00070470B49C87170470948406A40F08070EC
:100EF00007494862704701460020054A92680A4047
:100F00000AB1012000E00020704701498872704753
:100F1000001002400000FFF8FFFFF6FE0000424212
:100F20008004424200127A0000093D0020000020A7
:100F30003000002010B50446FE48844208D101214B
:100F4000C014FFF7ADFF0021E014FFF7A9FFC4E0D4
:100F5000B4F1804F08D101210846FFF7AEFF002110
:100F60000120FFF7AAFFB8E0F348844208D101212D
:100F70000220FFF7A2FF00210220FFF79EFFACE056
:100F8000EE48844208D101210420FFF796FF00219A
:100F90000420FFF792FFA0E0E948844208D1012134
:100FA0000820FFF78AFF00210820FFF786FF94E062
:100FB000E448844208D101211020FFF77EFF002180
:100FC0001020FFF77AFF88E0DF48844208D1012132
:100FD0002020FFF772FF00212020FFF76EFF7CE04A
:100FE000DA48844208D101214014FFF759FF00215B
:100FF0006014FFF755FF70E0D548844209D1012104
:10100000C804FFF74DFF00214FF40020FFF748FF11
:1010100063E0D048844209D101210805FFF740FF71
:1010200000214FF48010FFF73BFF56E0CA4884428E
:1010300009D101214805FFF733FF00214FF40010CB
:10104000FFF72EFF49E0C548844208D10121402026
:10105000FFF733FF00214020FFF72FFF3DE0C0489E
:10106000844208D101218020FFF727FF0021802042
:10107000FFF723FF31E0BB48844208D101218015EE
:10108000FFF71BFF0021A015FFF717FF25E0B6486B
:10109000844209D101210804FFF702FF00214FF427
:1010A0008030FFF7FDFE18E0B048844209D10121ED
:1010B0004804FFF7F5FE00214FF40030FFF7F0FE83
:1010C0000BE0AB48844208D101218804FFF7E8FE19
:1010D00000214FF48020FFF7E3FE10BD00220288BC
:1010E000944B98420ED0994B98420BD0B0F1804F60
:1010F00008D0914B984205D0904B984202D0904B2B
:10110000984204D14FF68F731A404B881A438D4B87
:10111000984207D08C4B984204D04FF6FF431A40B8
:10112000CB881A4302808B8883850B880385814B8B
:1011300098420BD0854B984208D08B4B984205D0F3
:101140008A4B984202D08A4B984201D10B7A03868F
:1011500001238382704770B5002400220023058C90
:101160004FF6FE7635400584028C8388048B4FF65B
:101170008F752C40B51E2C400D882C43751E2A40BF
:101180000D892A434D882A436A4DA8420BD06F4DE2
:10119000A84208D0744DA84205D0744DA84202D090
:1011A000734DA84213D14FF6F7752A404D892A4353
:1011B0004FF6FB752A408D882A434FF6FF652B407A
:1011C0004FF6FF552B408D892B43CD892B438380D0
:1011D0000483CD888586028470BD70B5002400220A
:1011E0000023058C4FF6EF7635400584028C83880A
:1011F000048B48F6FF752C404FF6FF452C400D88B8
:101200004FF6FF7606EA05252C434FF6DF752A4098
:101210000D8906EA05152A434D8806EA05152A4375
:10122000444DA84202D0494DA8421DD14FF67F75CA
:101230002A404D894FF6FF7606EA05152A434FF6F8
:10124000BF752A408D8806EA05152A434FF6FF35FB
:101250002B404FF2FF752B408D8906EA85052B4305
:10126000CD8906EA85052B4383800483CD880587D5
:10127000028470BD70B5002400220023058C4FF657
:10128000FF6635400584028C8388848B4FF68F750A
:101290002C404FF6FC752C400D882C434FF6FF5523
:1012A0002A400D894FF6FF7606EA05252A434D8828
:1012B00006EA05252A431F4DA84202D0234DA84225
:1012C0001DD14FF2FF752A404D894FF6FF7606EA91
:1012D00005252A434FF6FF352A408D8806EA052565
:1012E0002A434EF6FF752B404DF6FF752B408D8936
:1012F00006EA05152B43CD8906EA05152B438380A5
:101300008483CD888587028470BD70B50022002358
:101310000024058C4EF6FF7635400584038C8488C6
:10132000828B48F6FF752A404FF6FF452A400D880C
:1013300020E00000002C01400004004000080040B4
:10134000000C004000100040001400400034014038
:10135000004C014000500140005401400018004082
:10136000001C0040002000400040014000440140BB
:10137000004801404FF6FF7606EA05252A434DF660
:10138000FF752B400D8906EA05352B434D8806EA8B
:1013900005352B43FA4DA84202D0FA4DA84208D198
:1013A0004BF6FF752C408D894FF6FF7606EA8515C2
:1013B0002C4384808283CD88A0F84050038470BD84
:1013C000828B4FF2FF331A408283828B4FF6FF737A
:1013D00003EA01231A4382837047F0B50C46154691
:1013E000002200210026078C4EF6FF7C07EA0C073E
:1013F0000784828B018C4FF6FF7707EA043640F6AC
:10140000FF473A404FF6FF7707EA05273A434FF682
:10141000FF7707EA03373A43D94FB8420ED0D94F86
:10142000B8420BD0B0F1804F08D0D74FB84205D0AA
:10143000D64FB84202D0D64FB84206D14DF6FF770C
:10144000394046F48057394305E047F6FF573940A5
:1014500044F48057394382830184F0BD828B4FF678
:10146000F3731A408283828B0A4382837047F0B5FC
:101470000C461546002200210026078C4FF6FF6C13
:1014800007EA0C070784828B018C4FF6FF7707EA87
:1014900004264FF60C773A404FF6FF7707EA03171A
:1014A0002F433A43B64FB8420ED0B64FB8420BD096
:1014B000B0F1804F08D0B44FB84205D0B34FB84216
:1014C00002D0B34FB84206D14FF6FF57394046F429
:1014D0008077394305E04FF2FF57394044F4807775
:1014E000394382830184F0BD028B4FF2FF331A40EF
:1014F0000283028B4FF6FF7303EA01231A43028330
:101500007047F0B50C461546002200210026078CD6
:101510004FF6EF7C07EA0C070784028B018C4FF62D
:10152000FF7707EA041640F6FF473A404FF6FF7789
:1015300007EA03373A434FF6FF7707EA05273A43AE
:101540008F4FB8420ED08F4FB8420BD0B0F1804FC2
:1015500008D08D4FB84205D08C4FB84202D08C4F86
:10156000B84206D14FF6DF77394046F010073943CD
:1015700005E04FF65F77394044F0100739430283A6
:101580000184F0BD028B4FF6F3731A400283028B85
:101590000A4302837047F0B50C461546002200212D
:1015A000068C4FF6FE773E400684028B018C4FF688
:1015B0000C7632407E1C06EA03162E433243704EF0
:1015C000B0420ED06F4EB0420BD0B0F1804F08D079
:1015D0006D4EB04205D06D4EB04202D06C4EB0425E
:1015E00006D14FF6FD76314044F00106314305E067
:1015F0004FF6F576314044F0010631430283018411
:10160000F0BD70B505460C465D4885420ED05D487C
:1016100085420BD0B5F1804F08D05B48854205D09C
:101620005A48854202D05A48854200D100E000BFA6
:10163000208850B92389A28861882846FFF7ABFF2C
:10164000E1882846FFF79EFF25E0208804280AD17C
:101650002389A28861882846FFF753FFE18828463E
:10166000FFF742FF17E0208808280AD12389A288C3
:1016700061882846FFF7FBFEE1882846FFF7EEFE6B
:1016800009E02389A28861882846FFF7A6FEE18841
:101690002846FFF795FE70BD2DE9F04105460C4642
:1016A00000260127608808B9022600E00026A088ED
:1016B000012801D1022700E001272088A0B9238951
:1016C000A28861882846FFF766FFE1882846FFF771
:1016D00059FF23893A4631462846FFF712FFE18831
:1016E0002846FFF701FF13E02389A2886188284676
:1016F000FFF707FFE1882846FFF7F6FE23893A4601
:1017000031462846FFF747FFE1882846FFF73AFFB2
:10171000BDE8F0810A884B881A438B881A43CB882E
:101720001A430B891A434B891A438B891A43A0F831
:10173000442070474FF6FF71818000210180C180F5
:101740004180017270470021018041808180C18009
:10175000018141818181C1817047002101804180E7
:10176000012181800021C180018170470021018019
:1017700041808180C1800181418181817047000069
:10178000002C0140003401400004004000080040EB
:10179000000C004021B1028842F00102028004E006
:1017A00002884FF6FE731A400280704731B1B0F8DC
:1017B000442042F40042A0F8442005E0B0F8442060
:1017C000C2F30E02A0F8442070471AB183890B437C
:1017D000838102E083898B438381704781827047D4
:1017E00041EA0203A0F8483070471AB183890B43DD
:1017F000838102E083898B438381704701894FF69F
:10180000F8721140018170470A46002101894FF6A4
:101810008F73194011430181704730B504460D465E
:1018200029462046FFF7F0FF208940F0070020817D
:1018300030BD2DE9F04104460D4616461F46602D89
:1018400006D13B46012231462046FFF75AFE05E00D
:101850003B46012231462046FFF79DFE29462046A1
:10186000FFF7D2FF208940F007002081BDE8F0811A
:1018700030B50C4600210189C9B24FF6FF7505EA63
:101880000325154325432943018130BD2DE9F0414E
:1018900005460E4617469846002443463A463146CA
:1018A0002846FFF7E5FF2C894FF6F870044044F016
:1018B00007044FF68F70044044F070042C81BDE89B
:1018C000F081F0B504460D4616461F463B463246AB
:1018D00029462046FFF7CCFF208940F48040208134
:1018E000F0BD0185828270470A46002101884FF6CB
:1018F0008F731940114301807047F0B50C461546AF
:101900001E460021002200230189028B038C4FF622
:10191000F877394021434FF6FC473A4040F201172F
:101920003A434FF6DD773B404FF6FF7707EA06175D
:101930002F433B43018102830384F0BD0A4600210B
:10194000018B4FF68F7319401143018370470A468C
:101950000021018B48F6FF7319404FF6FF7303EA2D
:1019600002231943018370470A460021818B4FF6F9
:101970008F7319401143818370470A460021818B80
:1019800048F6FF7319404FF6FF7303EA0223194329
:101990008183704721B1028842F08002028004E016
:1019A00002884FF67F731A400280704721B1828807
:1019B00042F00402828004E082884FF6FB731A40F2
:1019C0008280704721B1828842F00802828004E060
:1019D00082884FF6F7731A408280704721B182885F
:1019E00042F00102828004E082884FF6FE731A40C2
:1019F000828070470A460021018B4FF6F773194029
:101A00001143018370470A460021018B4FF2FF7397
:101A100019404FF6FF7303EA02231943018370470D
:101A20000A460021818B4FF6F773194011438183D9
:101A300070470A460021818B4FF2FF7319404FF621
:101A4000FF7303EA02231943818370470A4600218A
:101A5000018B4FF6FB7319401143018370470A460F
:101A60000021018B4FF6FF3319404FF6FF7303EA55
:101A700002231943018370470A460021818B4FF6E8
:101A8000FB7319401143818370470A460021818B03
:101A90004FF6FF3319404FF6FF7303EA0223194351
:101AA000818370470A460021018B4FF67F731940EE
:101AB0001143018370470A460021018BC1F30E01D7
:101AC0004FF6FF7303EA02231943018370470A4666
:101AD0000021818B4FF67F7319401143818370473A
:101AE0000A460021818BC1F30E014FF6FF7303EA12
:101AF00002231943818370470A460021018C4FF667
:101B0000FD7319401143018470470A460021018C7E
:101B10004FF6F77319401143018470470A460021BC
:101B2000018C4FF6DF7319404FF6FF7303EA02137F
:101B30001943018470470A460021018C4FF67F73D8
:101B400019404FF6FF7303EA0213194301847047EB
:101B50000A460021018C4FF6FF5319404FF6FF73E0
:101B600003EA02231943018470470A460021018CCD
:101B70004FF2FF7319404FF6FF7303EA0223194334
:101B8000018470470A460021018C4DF6FF7319400D
:101B90004FF6FF7303EA023319430184704730B5EF
:101BA000002301248C40A3B2048C9C430484048C45
:101BB00002FA01F5ADB22C43048430BD30B50023E8
:101BC00004248C40A3B2048C9C430484048C02FA49
:101BD00001F5ADB22C43048430BD70B5034600203E
:101BE00000241846183001258D40ACB21D8CA54349
:101BF0001D8409B1082909D100EB6100056825F0B1
:101C0000700505600568154305600EE00D1FC5F3FE
:101C10004E052844056825F4E045056005684FF643
:101C2000FF7606EA02263543056070BD21B10288C1
:101C300042F00202028004E002884FF6FD731A406F
:101C40000280704721B1028842F00402028004E061
:101C500002884FF6FB731A400280704721B18288D8
:101C600042F08002828004E082884FF67F731A403F
:101C70008280704702884FF6F7731A40028002880C
:101C80000A430280704782884FF68F731A40828021
:101C900082880A438280704702894FF6F8731A409F
:101CA000028102890A430281704702894FF67F73DD
:101CB0001A40028102890A43028170478184704779
:101CC000818570478186704701877047818770479B
:101CD000A0F84010704702884FF6FF431A40028078
:101CE00002880A43028070470146888E7047014689
:101CF000088F70470146888F70470146B1F8400051
:101D000070470146888C70470146088D704702462F
:101D10000020138A0B400BB1012000E00020704727
:101D2000CA430282704730B50246002000230024D7
:101D3000158A05EA0103958905EA010413B10CB17E
:101D4000012000E0002030BDCA430282704700003D
:101D500010B50446FB48844209D101218803FFF7EE
:101D60009FF800214FF48040FFF79AF832E0F648E0
:101D7000844209D101214804FFF79FF800214FF464
:101D80000030FFF79AF825E0F048844209D101219C
:101D90008804FFF792F800214FF48020FFF78DF8B8
:101DA00018E0EB48844209D10121C804FFF785F807
:101DB00000214FF40020FFF780F80BE0E548844253
:101DC00008D101210805FFF778F800214FF48010B1
:101DD000FFF773F810BD2DE9F04786B005460E46B3
:101DE0000024A24600BFA1460027B08900B100BF71
:101DF0002F462C8A4CF6FF700440F08804432C8256
:101E0000AC894EF6F3100440B088318908437189DB
:101E100008430443AC81AC8A4FF6FF400440B089CC
:101E20000443AC8201A8FEF7B4FFC648874202D142
:101E3000DDF810A001E0DDF80CA0A88900F4004056
:101E400040B10AEBCA0000EB0A1031684900B0FB50
:101E5000F1F807E00AEBCA0000EB0A1031688900CC
:101E6000B0FBF1F86420B8FBF0F004012009642114
:101E700001FB1089A88900F4004040B1322000EB3A
:101E8000C900B0FBF1F000F00700044308E0322085
:101E900000EB09106421B0FBF1F000F00F000443E7
:101EA0002C8106B0BDE8F0874FF416510160002187
:101EB0008180C18001810C21418100218181704795
:101EC00010B502460020108A4FF2FF0318400B881D
:101ED0004C8823438C882343CC88234318431082A7
:101EE00010BD0021018041808180C180704721B1F7
:101EF000828942F40052828104E082894DF6FF73A8
:101F00001A4082817047F0B5034600240026002560
:101F1000002040F66A17B94200D100BF1846C1F34D
:101F2000421401F01F06012707FA06F5012C01D122
:101F30000C3004E0022C01D1103000E014301AB152
:101F400007682F43076002E00768AF430760F0BDF2
:101F50001AB1838A0B43838202E0838A8B43838294
:101F60007047028A4FF6F0731A400282028A0A43CF
:101F70000282704782894FF2FF731A408281828900
:101F80000A438281704721B1828942F00202828134
:101F900004E082894FF6FD731A4082817047028AFD
:101FA0004FF6DF731A400282028A0A4302827047A8
:101FB00021B1028A42F48042028204E0028A4BF696
:101FC000FF731A4002827047C1F308028280704793
:101FD00001468888C0F308007047818941F00101FB
:101FE00081817047028BD2B20283028B42EA0122C6
:101FF00002837047028B02F47F420283028B0A4302
:102000000283704721B1828A42F02002828204E07A
:10201000828A4FF6DF731A408282704721B1828A2A
:1020200042F01002828204E0828A4FF6EF731A4077
:102030008282704721B1828A42F00802828204E0E3
:10204000828A4FF6F7731A408282704721B18289E3
:1020500042F40042828103E08289C2F30E0282814F
:10206000704721B1828A42F40062828204E0828A4F
:102070004FF2FF731A4082827047828A4FF6FB73D9
:102080001A408282828A0A438282704721B1828A00
:1020900042F00202828204E0828A4FF6FD731A4007
:1020A0008282704702460020B1F5007F00D100BF58
:1020B00013880B400BB1012000E00020704701F4B1
:1020C0000072B2F5007F00D100BFCA4302807047A2
:1020D00070B50246002400230025002040F66A1651
:1020E000B14200D100BFC1F3421501F01F03012628
:1020F00006FA03F3012D02D19689334006E0022D42
:1021000002D1168A334001E0968A33400C12012630
:1021100006FA04F41688344013B10CB1012000E033
:10212000002070BD10B50022002340F66A14A142C1
:1021300000D100BF0A1201249440A3B2DC43048002
:1021400010BD00000038014000440040004800403D
:10215000004C0040005000400E49086070470D4997
:10216000486070470B49886070474AF6AA200949C1
:10217000086070474CF6CC4006490860704701463D
:102180000020044AD2680A400AB1012000E0002081
:10219000704700000030004010B54FF4A060FEF71B
:1021A000B1F9FEF745F900F017F800F03FF841F2F9
:1021B000BF2142F20F7000F059F84FF4165000F0B2
:1021C0009BF800F0CBF800F0B5F940F27121072040
:1021D00000F08EFC10BD000008B50121C020FEF704
:1021E00045FE40F2FF70ADF8000010208DF80300AE
:1021F00003208DF8020069461948FEF77BFB40F288
:10220000FF711748FEF723FC4020ADF800001020B6
:102210008DF8030003208DF8020069461148FEF78F
:1022200069FB40210F48FEF712FC08BD08B50121EB
:102230000820FEF71BFE4FF40050ADF80000102000
:102240008DF8030003208DF8020069460648FEF76A
:1022500051FB4FF400510448FEF7F9FB08BD0000A4
:10226000001C014000180140000C01407FB50546EC
:102270000C4601210846FEF706FEADF80850ADF801
:1022800004400020ADF80A00ADF8060001A94FF0A7
:102290008040FEF723FF1C208DF8000000208DF801
:1022A00001008DF8020001208DF803006846FEF75A
:1022B0002EF901218807FFF747FD012211469007FB
:1022C000FFF783FA01218807FFF764FA7FBD10B595
:1022D00001218807FFF727FD50B101218807FFF78B
:1022E00033FD00F017FC03480068401C01490860FA
:1022F00010BD00003800002010B586B00446012152
:102300000820FEF7C0FD01218804FEF7BCFD4FF454
:102310000060ADF8140004208DF8170005A9754879
:10232000FEF7E8FA01940020ADF80800ADF80A00C5
:10233000ADF80C00ADF810000420ADF80E0001A9B6
:102340006D48FFF748FD01216B48FFF7D0FD0122E2
:1023500040216948FFF7FCFD06B010BD00B58DB007
:1023600001210846FEF775FD6448FEF739F9624819
:10237000001D0190624802900020039014200490F8
:1023800000200590802006900020079008902020D3
:1023900009904FF440500A9000200B9001A9574833
:1023A000FEF7C0F9012202215448FEF7F2F901219B
:1023B0005248FEF7E2F90D208DF8300001208DF82B
:1023C000310000208DF8320001208DF833000CA878
:1023D000FEF79DF80DB000BD0021022004E0494A3F
:1023E000125C0A4491B2401C0728F8DD4548007A87
:1023F0000840A8B143488078424AD27800EB0220D6
:102400000A2290FBF2F0404A10803E4800793D4A93
:10241000527900EB02200A2290FBF2F03B4A108036
:10242000704770B54FF40070FEF7E1F9002860D0F6
:102430004FF40070FEF7D0F94FF40070FEF7EBF99F
:102440002F480078AA280FD12D484078C0280BD1FA
:10245000002304E02A48C05C2A49C8545B1C0A2BAC
:10246000F8DBFFF7B9FF3CE02948407AAA2805D1FC
:1024700023480078AA2801D109250EE000240AE0AB
:102480002348005DAA2805D12149601C085CAA28C0
:1024900000D12546641C0A2CF2DB002305E0581904
:1024A0001B49085C1749C8545B1CC5F10A009842D7
:1024B000F5DC002607E01248815D06F10A00401BAA
:1024C000104A1154761CAE42F5DB002304E00C48A0
:1024D000C05C0F49C8545B1C0A2BF8DBFFF77CFF7C
:1024E00000BF0C48006808B9012000E0002009493D
:1024F000086070BD000C0140004800403000024000
:10250000BC000020D0000020A8000020AA0000206D
:10251000C60000209881234200BF704700BF384AA0
:10252000128802F04002002AF9D0C2B2344B1B1DBF
:102530001A80704700B591B001210420FEF796FC87
:1025400001214804FEF79FFC01210846FEF781FCAB
:1025500010A8FEF75AFA0420ADF8400018208DF8B4
:10256000430010A92748FEF7C5F90820ADF8400040
:1025700004208DF8430010A92248FEF7BBF920483B
:10258000FFF7E6FB0CA8FFF78FFC4FF416500C90FA
:102590000020ADF83400ADF83600ADF838000C205E
:1025A000ADF83A000020ADF83C000CA91448FFF744
:1025B00012FC012240211248FFF7CAFC1248FEF724
:1025C0000FF80F48001D0190104802900020039062
:1025D0004FF4806004900020059080200690002039
:1025E00007900890202009904FF440500A90002056
:1025F0000B9001A90448FEF795F811B000BD00004A
:1026000000440040000801406C000240DA00002055
:1026100008B501210820FEF729FCC020ADF8000014
:1026200014208DF8030003208DF8020069469048BD
:10263000FEF760F9C0218E48FEF709FA08BD10B513
:102640008B48006820F0704089490860084600689F
:1026500040F0405008600120864908608649C1F872
:1026600098010420FDF7FDFE002082490860042047
:10267000FDF7F7FE00208049C1F8980110BD10B5A4
:102680007B48006820F0704079490860084600687F
:1026900040F04050086000207649091F08607649E4
:1026A000C1F89C010420FDF7DCFE01207149091FDF
:1026B00008607149C1F89C010420FDF7D2FE10BDED
:1026C00010B500246A48006820F07040684908602E
:1026D0000846006840F00040086001206549086035
:1026E000FDF7BFFE01206449C1F89801FDF7B9FE6E
:1026F00007E0601CC4B2FA2C03DDFFF7C0FF012025
:1027000010BD5C48803800680028F2D15949091F83
:10271000086000BFF4E710B500205649091F0860A3
:102720005348006820F0704051490860084600682E
:1027300040F04050086000204F49C1F89C01022041
:10274000FDF78FFE01204B49091F08600220FDF7AD
:1027500088FE00204849C1F8980110BD10B500203E
:102760004449091F08604248006820F07040404911
:1027700008600846006840F04050086001203E496B
:10278000C1F89C010220FDF76CFE01203949091FA8
:1027900008600220FDF765FE00203749C1F8980166
:1027A00010BD70B504463248006820F070403049D2
:1027B00008600846006840F04050086000202D493D
:1027C000091F086000251DE0E00918B10120294912
:1027D000086002E00020274908606006040E02201D
:1027E000FDF73FFE01202349091F08600220FDF785
:1027F00038FE00202049C1F898010220FDF731FE83
:10280000681CC5B2082DDFDB70BD70B5054600241D
:102810001748006820F070401549086008460068B5
:1028200040F000400860002617E000201149091F11
:1028300008600220FDF715FE01200F49C1F898013C
:102840006006040E0B488038006808B1601CC4B2F2
:102850000120FDF706FE701CC6B2082EE5DB15B997
:10286000FFF77CFF01E0FFF756FF204670BD000038
:10287000000C01409C8121420080214208B50121C9
:102880000420FEF7F3FA3020ADF8000010208DF898
:10289000030003208DF8020069469148FEF72AF8EC
:1028A00030218F48FEF7D3F800208E49086008BD1C
:1028B00010B58B48006820F470008949086008460C
:1028C000006840F44010086001208749086087498B
:1028D000C1F890010420FDF7C4FD00208249086082
:1028E0000420FDF7BEFD00208049C1F8900110BD15
:1028F00010B57B48006820F47000794908600846EC
:10290000006840F44010086000207749091F086003
:102910007649C1F894010420FDF7A3FD0120724916
:10292000091F08607149C1F894010420FDF799FD61
:1029300010BD10B500246A48006820F47000684992
:1029400008600846006840F40000086001206649FD
:102950000860FDF786FD01206449C1F89001FDF78C
:1029600080FD07E0601CC4B2FA2C03DDFFF7C0FF56
:10297000012010BD5C48803800680028F2D15A4917
:10298000091F086000BFF4E710B500205649091F71
:1029900008605348006820F47000514908600846F8
:1029A000006840F44010086000205049C1F89401CC
:1029B0000220FDF756FD01204B49091F0860022047
:1029C000FDF74FFD00204949C1F8900110BD10B539
:1029D00000204549091F08604148006820F4700044
:1029E0003F4908600846006840F440100860012034
:1029F0003E49C1F894010220FDF733FD01203A4918
:102A0000091F08600220FDF72CFD00203749C1F89E
:102A1000900110BD70B504463148006820F4700084
:102A20002F4908600846006840F440100860002004
:102A30002D49091F086000251DE0E00918B101209B
:102A40002949086002E00020274908606006040E5A
:102A50000220FDF706FD01202349091F086002201E
:102A6000FDF7FFFC00202149C1F890010220FDF78D
:102A7000F8FC681CC5B2082DDFDB70BD70B50546DB
:102A800000241748006820F47000154908600846C3
:102A9000006840F400000860002617E0002012499A
:102AA000091F08600220FDF7DCFC01200F49C1F876
:102AB00090016006040E0C488038006808B1601C64
:102AC000C4B20120FDF7CDFC701CC6B2082EE5DBB8
:102AD00015B9FFF77CFF01E0FFF756FF204670BDF8
:102AE0000008014098012342940121420000214244
:102AF00070B505460C4645F25550FFF72DFB2846AC
:102B0000FFF72DFB2046FFF72DFBFFF72EFBFFF70E
:102B100031FB70BD10B5FFF728FB10BD10B5FFF7F6
:102B200077FD4FF6FF7200214FF4874001F01AFC49
:102B300018B900203049086002E002202F490860DF
:102B40000120FDF7B2FC4FF6FF7200214FF48740E1
:102B500001F027FC20B900202749091D086002E088
:102B60000220264908600120FDF79FFCFFF786FE42
:102B7000002404E04FF47A70FDF797FC641C0A2CE3
:102B8000F8DB01211E48FDF7F8FD01211D48FFF784
:102B9000AEF900F0B5F81C48007868B900F058FEAE
:102BA0004FF47A70FDF781FC4FF47A70FDF77DFCED
:102BB00000F00BF91449087013480078022805D179
:102BC00012A002F0CBFA11A002F0C8FA8321144837
:102BD00002F026FC4FF48061124802F021FC002430
:102BE00004E04FF47A70FDF760FC641C052CF8DB00
:102BF00000200D49086010BD9C8123420400002084
:102C00006C000240004400403C00002041542B4D29
:102C100049504C434C4F53453D300D0A00000000D5
:102C2000DC060020DA000020380000202DE9F04703
:102C300005460E46144699460027B8462946F9A08F
:102C400002F08CFA4FF4FA70FDF72FFCF648D0F83A
:102C5000008014E03146F54802F077FB08B1002708
:102C60000EE02946EFA002F079FAA0B2FDF71DFCB4
:102C7000ED480068A0EB08000A2800D900E0E9E769
:102C800000BFA0B2FDF711FC3846BDE8F0872DE982
:102C9000F04705460F4616461C46DDF820A04FF0CB
:102CA0000008C1462946DFA002F058FA6420FDF76B
:102CB000FCFBDD48D0F800901AE03946DB4802F012
:102CC00044FB20B93146D94802F03FFB10B14FF028
:102CD00000080EE02946D3A002F040FAA0B2FDF7AA
:102CE000E4FBD1480068A0EB09000A2800D900E005
:102CF000E3E700BFA0B2FDF7D8FB4046BDE8F08790
:102D000010B501234FF47A72C9A1CCA0FFF78EFF52
:102D100001234FF47A72CCA1CCA0FFF787FF0123E7
:102D20004FF47A72C8A1CDA0FFF780FF01234FF4C2
:102D30007A72CDA1CFA0FFF779FF10BD704710B513
:102D400004464FF40071CE4802F08CFBCDA1CC4874
:102D500002F00DFB2146CA4802F009FBCEA1C8488B
:102D600002F005FBCDA1C64802F001FBCEA1C4488C
:102D700002F0FDFA01234FF47A72B3A1C048FFF7C5
:102D800055FF10BD10B504464FF40071BC4802F069
:102D900069FBBCA1BA4802F0EAFA2146B84802F041
:102DA000E6FABDA1B64802F0E2FAC0A1B44802F0CA
:102DB000DEFABDA1B24802F0DAFA01234FF47A72CA
:102DC000A1A1AF48FFF732FF10BD2DE9F047012365
:102DD0004FF47A729CA1BCA0FFF728FF01234FF4A7
:102DE0007A7299A1BCA0FFF721FF01234FF47A72F8
:102DF00095A1C2A0FFF71AFF01234FF47A7292A1A6
:102E0000C7A0FFF713FF01234FF47A728EA1CDA064
:102E1000FFF70CFF01234FF47A728BA1D2A0FFF7CA
:102E200005FF002640F6F349002400250027D7A01F
:102E300002F094F9A04605E04FF47A70FDF735FBF7
:102E400008F10108B8F10A0FF6DB77480768E3E2FA
:102E5000D4A1764802F079FAD7490860084600689C
:102E600000286FD0012E00D1D7E24FF47A70FDF721
:102E70001CFB4FF47A70FDF718FB4FF47A70FDF7E6
:102E800014FB6948056823E0CCA1684802F05DFAAC
:102E9000CD4908600846006890B1002400E0641C39
:102EA000C94800680938005D2C28F8D1C4F1070230
:102EB000C548006808380119C44802F064FA08E0FF
:102EC00059480068401B082802D90027002600E066
:102ED000DAE700BF5448056824E0BDA1534802F07A
:102EE00034FAB94948600846406898B1002400E0C7
:102EF000641CB54840680938005D2C28F8D1C4F13D
:102F00000702B148406808380119B048083002F09B
:102F10003AFA08E044480068401B082802D9002714
:102F2000002600E0D9E700BF3F48056825E0ABA1D7
:102F30003E4802F00AFAA449C8600846C068A0B139
:102F4000002401E05AE2641C9F48C0680938005D13
:102F50002C28F8D1C4F107029B48C0680838011931
:102F60009A48183002F00FFA08E02F480068401B1A
:102F7000082802D90027002600E0D8E700BF2A4829
:102F8000056824E098A1294802F0DFF98E4908611C
:102F90000846006998B1002400E0641C8A48006972
:102FA0000938005D2C28F8D1C4F107028648006971
:102FB000083801198548203002F0E5F908E01A4880
:102FC0000068401B082802D90027002600E0D9E746
:102FD00000BF1548056813E186A1144802F0B5F951
:102FE000794948610846406998B1002400E0641CB2
:102FF000754840690938005D2C28F8D1C4F10702F2
:1030000071484069083801197048283002F0BBF94E
:10301000F7E005480068401B082802D90027002671
:10302000EFE0EDE02573000038000020DA0000201A
:103030002B43474154543A310000000041542B4384
:10304000474154543F0D0A004F4B000041542B435D
:10305000455245473D310D0A0000000041542B43C5
:103060004D45453D310D0A002B43455245473A3108
:103070002C31000041542B43455245473F0D0A0077
:10308000DC04002041542B4D49504C444953434FDC
:103090005645525253503D302C000000312C342CF8
:1030A00022353730302200000D0A0000312C313932
:1030B0002C22353730303B353730303B35373030E8
:1030C0003B3537303022000041542B4D49504C43A2
:1030D00052454154450D0A0041542B4D49504C4135
:1030E00044444F424A3D302C333330332C312C2270
:1030F00031222C312C310D0A0000000041542B4D9F
:1031000049504C4144444F424A3D302C33333034D3
:103110002C312C2231222C312C310D0A00000000E0
:1031200041542B4D49504C4144444F424A3D302C70
:10313000333331352C342C2231313131222C312CA6
:10314000310D0A0041542B4D49504C4144444F42EB
:103150004A3D302C333331362C342C22313131314D
:10316000222C312C310D0A0041542B4D49504C4139
:1031700044444F424A3D302C333332332C312C22DD
:1031800031222C312C310D0A0000000041542B4D0E
:1031900049504C4F50454E3D302C393630302C364E
:1031A000300D0A002B4D49504C4F42534552564565
:1031B0003A20302C0000000048000020312C33332E
:1031C00030332C3000000000740700200707002077
:1031D000312C333330342C3000000000312C3333A9
:1031E00031352C3000000000312C333331352C3197
:1031F00000000000312C333331352C320000000048
:10320000EAE600BFF748056823E0F7A1F94802F0B5
:103210009CF8F94988610846806990B1002400E073
:10322000641CF54880690938005D2C28F8D1C4F188
:103230000702F148806908380119F04802F0A3F844
:1032400008E0E8480068401B082802D9002700264B
:1032500000E0DAE700BFE348056824E0E8A1E548BC
:1032600002F073F8E449C8610846C06998B10024C7
:1032700000E0641CE048C0690938005D2C28F8D1E2
:10328000C4F10702DC48C06908380119DB4808307E
:1032900002F079F808E0D3480068401B082802D9FA
:1032A0000027002600E0D9E700BFCE48056824E0EB
:1032B000D6A1D04802F049F8CF4908620846006A12
:1032C00098B1002400E0641CCB48006A0938005D16
:1032D0002C28F8D1C4F10702C748006A0838011940
:1032E000C648103002F04FF808E0BE480068401BA6
:1032F000082802D90027002600E0D9E700BFB94816
:10330000056824E0C4A1BB4802F01FF8BA4948622E
:103310000846406A98B1002400E0641CB648406A40
:103320000938005D2C28F8D1C4F10702B248406A80
:1033300008380119B148183002F025F808E0A9480A
:103340000068401B082802D90027002600E0D9E7C2
:1033500000BFA448056824E0B2A1A64801F0F5FF2B
:10336000A54988620846806A98B1002400E0641C80
:10337000A148806A0938005D2C28F8D1C4F1070201
:103380009D48806A083801199C48203001F0FBFFF5
:1033900008E094480068401B082802D9002700264E
:1033A00000E0D9E700BF8F48056824E0A0A191485C
:1033B00001F0CBFF904988600846806898B10024EE
:1033C00000E0641C8C4880680938005D2C28F8D126
:1033D000C4F10702884880680838011987482038F6
:1033E00001F0D1FF08E07F480068401B082802D99F
:1033F0000027002600E0D9E700BF0126012E00D1FA
:103400000BE078480068C01B5A2802D90027002624
:1034100003E06420FDF749F81AE500BF76488068AC
:10342000744A801A00F10F010122724801F0F0FF86
:103430006C4807688DE181A16E4801F086FF8449E0
:10344000086008460068002876D0022E00D183E18B
:1034500040F6F341A9EB010089450CD006DCA9F642
:10346000E740002878D0012868D1ACE0012839D0A5
:103470000828F9D127E15B4805682EE075A15D4871
:1034800001F063FF7549086008460068E8B1002450
:1034900000E0641C714800680938005D2C28F8D1F0
:1034A0006E480368006809382044401C1A1A6B48AB
:1034B000006809382044411C5048403801F063FF3F
:1034C0004E484038FFF75EFC08E046480068401B65
:1034D000082802D90027002600E0CFE700BF40F609
:1034E000F44927E13F48056831E05DA1414801F01A
:1034F0002CFF5A4948600846406800B3002400E0A9
:10350000641C564840680938005D2C28F8D153489F
:103510004368406809382044401C1A1A4F484068E4
:1035200009382044411C3548383801F02CFF334815
:103530003838FFF727FC0BE0FDE00DE0F9E0294803
:103540000068401B082802D90027002600E0CCE7CD
:1035500000BF40F6E749EDE0224805682EE042A1B1
:10356000244801F0F2FE3D49886008468068E8B1D1
:10357000002400E0641C394880680938005D2C286C
:10358000F8D136488368806809382044401C1A1AEC
:103590003248806809382044411C1848583801F0E6
:1035A000F2FE16485838FFF7CAFB08E00D480068DD
:1035B000401B082802D90027002600E0CFE700BF03
:1035C00040F6E849B6E00748056877E028A10948D1
:1035D00001F0BBFE2149C8600846C06808B100245C
:1035E0004BE063E038000020312C333331352C338D
:1035F00000000000DA0000207407002037070020D8
:10360000312C333331362C3000000000312C333371
:1036100031362C3100000000312C333331362C325E
:1036200000000000312C333331362C330000000011
:10363000312C333332332C30000000002B4D4950F5
:103640004C444953434F5645523A20302C00000019
:10365000440000202C333331350000006007002087
:103660002C333331360000002C333330330000006C
:103670002C33333034000000641CF748C06809382C
:10368000005D2C28F8D1F448C368C068093820448C
:10369000401C1A1AF048C06809382044411CEF4801
:1036A00001F071FEED48FFF74AFB08E0EC480068C6
:1036B000401B082802D90027002600E086E700BF4B
:1036C00040F6FB4936E0E64805682EE0E5A1E7480C
:1036D00001F03BFEE049086108460069E8B10024BA
:1036E00000E0641CDC4800690938005D2C28F8D132
:1036F000D9480369006909382044401C1A1AD64881
:10370000006909382044411CD448083001F03BFED0
:10371000D2480830FFF713FB08E0D1480068401B8F
:10372000082802D90027002600E0CFE700BF0226C4
:1037300000E000BF00BF022E00D10DE0C8480068C5
:10374000C01B2D2802D90027002605E06420FCF7C5
:10375000ACFE012E3FF46FAE00BFF0B2BDE8F087C3
:103760002DE9F04704460F4615461E46DDF8208039
:103770004FF000094FF40071BD4801F073FEBDA188
:10378000BB4801F0F4FD2146B94801F0F0FDAFF26D
:103790004411B74801F0EBFD3946B54801F0E7FDAB
:1037A000AFF25811B24801F0E2FD2946B04801F0ED
:1037B000DEFDAFF26811AE4801F0D9FDB2A130468E
:1037C00001F078FE18B9B2A1A94801F0D0FD414638
:1037D000A74801F0CCFDB1A1A54801F0C8FDAFF2AA
:1037E0003871A34801F0C3FD012291029F4801F006
:1037F0000FFE9F49AFF2D47001F0B0FC4FF4FA70A5
:10380000FCF753FE9648D0F8009019E0AFF2C8716B
:10381000964801F09AFD00B113E09549AFF2FC70B3
:1038200001F09CFC4FF47A70FCF73FFE8C48006876
:10383000A0EB0900052803D901209A49086000E09F
:10384000E4E700BF4FF47A70FCF72FFEBDE8F08785
:1038500008B501204FF47A7393A2AFF614010090DB
:1038600093A0FFF714FA01204FF47A738EA2AFF6FB
:103870002801009093A0FFF70AFA01204FF47A7311
:1038800089A2AFF63C01009094A0FFF700FA012056
:103890004FF47A7384A2AFF65001009095A0FFF721
:1038A000F6F901204FF47A737FA2AFF6640100901D
:1038B00096A0FFF7ECF901204FF47A737AA2AFF6E5
:1038C0007801009097A0FFF7E2F901204FF47A7396
:1038D00075A2AFF68C01009098A0FFF7D8F908BD4B
:1038E0002DE9F047002640F6F34900240027002583
:1038F000AFF2687001F032FCA04605E04FF47A7038
:10390000FCF7D3FD08F10108B8F10A0FF6DB5448C3
:103910000768B9E2AFF27471544801F016FD8C49A2
:10392000086008460068002873D0012E00D1ACE280
:103930004B4805682BE0AFF27C714C4801F005FD67
:103940008449086008460068C8B1002400E0641C8F
:10395000804800680C38005D2C28F8D17D48036849
:1039600000680C382044181A821E7A4800680C3807
:103970002044411C3948203001F005FD08E038485A
:103980000068401B082802D90027002600E0D2E783
:1039900000BF334805682BE0AFF2CC71334801F02B
:1039A000D4FC6C49486008464068C8B1002400E077
:1039B000641C684840680C38005D2C28F8D16548C4
:1039C000436840680C382044181A821E61484068D9
:1039D0000C382044411C2148283001F0D4FC08E078
:1039E0001F480068401B082802D90027002600E075
:1039F000D2E700BF1A480568AEE0AFF620011B48C9
:103A000001F0A3FC5349C8600846C068D0B1002447
:103A100001E02BE2641C4F48C0680C38005D2C2884
:103A2000F8D14C48C368C0680C382044181A821E6C
:103A30004848C0680C382044411C0848383001F020
:103A4000A2FC8AE006480068401B082802D900272B
:103A5000002682E080E0000060070020E7060020EA
:103A6000380000202C33333233000000DA0000200D
:103A7000DC04002041542B4D49504C4E4F544946D4
:103A8000593D302C00000000353730300000000078
:103A9000353730302C342C342C0000002C302C30B6
:103AA00000000000400000204552524F520000002C
:103AB00041542B4D49504C434C4F53453D300D0A1A
:103AC0000000000041542B4D49504C44454C4F429E
:103AD0004A3D302C333330330D0A000041542B4D16
:103AE00049504C44454C4F424A3D302C33333034DE
:103AF0000D0A000041542B4D49504C44454C4F4257
:103B00004A3D302C333332330D0A000041542B4DE3
:103B100049504C44454C4F424A3D302C33333135AB
:103B20000D0A000041542B4D49504C44454C4F4226
:103B30004A3D302C333331360D0A000041542B4DB1
:103B400049504C44454C4554453D300D0A00000059
:103B500050000020B40700204FE700BFF848056878
:103B60002AE0AFF67C11F74801F0EFFBF649086157
:103B700008460069C0B1002400E0641CF2480069F6
:103B80000C38005D2C28F8D1EF48036900690C3827
:103B90002044181A821EEC4800690C382044411C4D
:103BA000EA4801F0F0FB08E0E5480068401B0828FF
:103BB00002D90027002600E0D3E700BFE0480568EF
:103BC0002BE0AFF6D011DF4801F0BFFBDE494861C2
:103BD00008464069C8B1002400E0641CDA48406926
:103BE0000C38005D2C28F8D1D748436940690C385F
:103BF0002044181A821ED44840690C382044411CC5
:103C0000D248083001F0BFFB08E0CD480068401BF7
:103C1000082802D90027002600E0D2E700BFC848E4
:103C200005682BE0AFF24061C64801F08EFBC64943
:103C3000886108468069C8B1002400E0641CC2485D
:103C400080690C38005D2C28F8D1BF4883698069F1
:103C50000C382044181A821EBB4880690C38204456
:103C6000411CBA48103001F08EFB08E0B4480068EF
:103C7000401B082802D90027002600E0D2E700BF39
:103C8000AF4805682BE0AFF28861AE4801F05DFBFC
:103C9000AD49C8610846C069C8B1002400E0641C91
:103CA000A948C0690C38005D2C28F8D1A648C36922
:103CB000C0690C382044181A821EA348C0690C3809
:103CC0002044411CA148183001F05DFB08E09C48ED
:103CD0000068401B082802D90027002600E0D2E730
:103CE00000BF974805682BE0AFF2E061954801F00E
:103CF0002CFB954908620846006AC8B1002400E020
:103D0000641C9148006A0C38005D2C28F8D18E485C
:103D1000036A006A0C382044181A821E8A48006A16
:103D20000C382044411C8948203001F02CFB08E06D
:103D300083480068401B082802D90027002600E0BD
:103D4000D2E700BF7E4805682BE0AFF234717D48B2
:103D500001F0FBFA7C4948620846406AC8B1002479
:103D600000E0641C7848406A0C38005D2C28F8D1CB
:103D70007548436A406A0C382044181A821E7248FB
:103D8000406A0C382044411C7048283001F0FBFA8E
:103D900008E06B480068401B082802D9002700266D
:103DA00000E0D2E700BF664805682BE0AFF28C71F7
:103DB000644801F0CAFA644988620846806AC8B15A
:103DC000002400E0641C6048806A0C38005D2C28E8
:103DD000F8D15D48836A806A0C382044181A821E24
:103DE0005948806A0C382044411C5848303001F052
:103DF000CAFA08E052480068401B082802D9002788
:103E0000002600E0D2E700BF4D4805682BE0AFF286
:103E1000E0714C4801F099FA4B4988600846806887
:103E2000C8B1002400E0641C474880680C38005D7D
:103E30002C28F8D14448836880680C382044181A2C
:103E4000821E414880680C382044411C3F4810388D
:103E500001F099FA08E03A480068401B082802D9A6
:103E60000027002600E0D2E700BF0126012E00D186
:103E70000BE033480068C01B5A2802D900270026EF
:103E800003E06420FCF711FB44E500BF2E48806886
:103E90002C4A801A00F10F0101222A4801F0B8FAD9
:103EA0002748076856E1AFF66C01264801F04DFA45
:103EB000274908600846006800287DD0022E00D1FE
:103EC0004BE140F6F341A9EB010089450CD006DC3B
:103ED000A9F6E740002870D001286FD1BBE0012887
:103EE00047D00828F9D1EEE0154805683CE0AFF668
:103EF0009C01144801F029FA164908600846006838
:103F0000E8B1002400E0641C124800680938005D34
:103F10002C28F8D10F480368006809382044401C59
:103F20001A1A0C48006809382044411C07483038E8
:103F300001F029FA05483038FEF724FF15E00BE0C0
:103F400038000020DA000020B407002027070020F6
:103F50004C000020A007002082480068401B082871
:103F600002D90027002600E0C1E700BF40F6F4496F
:103F7000E1E07C48056831E0AFF61C117A4801F0B9
:103F8000E4F97A49486008464068F8B1002400E046
:103F9000641C764840680938005D2C28F8D17348C5
:103FA0004368406809382044401C1A1A6F4840682A
:103FB00009382044411C02E0BEE014E0BAE06C483D
:103FC00001F0E1F96A48FEF7DDFE08E065480068A7
:103FD000401B082802D90027002600E0CCE700BFDC
:103FE00040F6E749A7E05F4805682FE0AFF6881183
:103FF0005D4801F0AAF95D49886008468068E8B12B
:10400000002400E0641C594880680938005D2C28B1
:10401000F8D156488368806809382044401C1A1A31
:104020005248806809382044411C5148203801F02A
:10403000AAF94F482038FEF782FE08E04948006898
:10404000401B082802D90027002600E0CEE700BF69
:1040500040F6E8496FE0434805682FE0AFF6F011FD
:10406000414801F072F94149C8600846C068E8B1AA
:10407000002400E0641C3D48C0680938005D2C281D
:10408000F8D13A48C368C06809382044401C1A1A5D
:104090003648C06809382044411C3548183801F0BA
:1040A00072F933481838FEF74AFE08E02D480068D8
:1040B000401B082802D90027002600E0CEE700BFF9
:1040C00040F6FB4937E0274805682FE0AFF26C6106
:1040D000254801F03AF92549086108460069E8B128
:1040E000002400E0641C214800690938005D2C2888
:1040F000F8D11E480369006909382044401C1A1A87
:104100001A48006909382044411C1948103801F048
:104110003AF917481038FEF712FE08E01148006817
:10412000401B082802D90027002600E0CEE700BF88
:10413000022600E000BF00BF022E00D10DE00948BA
:104140000068C01B2D2802D90027002605E0642046
:10415000FCF7ABF9012E3FF4A6AE00BFF0B2BDE80C
:10416000F087000038000020DA000020A0070020BF
:10417000FF06002070B504460D460026FEF75FFAE4
:10418000902141EA4401C8B2FEF70BFBFEF798FA12
:104190002846FEF706FBFEF793FAFEF750FA912148
:1041A00041EA4401C8B2FEF7FCFAFEF789FA0120A1
:1041B000FEF72BFB06020120FEF727FB0643FEF766
:1041C0005EFA0320FCF74DF9304670BD70B5064627
:1041D0000C461546FEF733FA902141EA4601C8B273
:1041E000FEF7DFFAFEF76CFA2046FEF7DAFAFEF782
:1041F00067FA2812FEF7D5FAFEF762FAE8B2FEF780
:10420000D0FAFEF75DFAFEF73AFA0320FCF729F937
:1042100070BD38B505460C467149681A8D4223D0E9
:1042200009DC7048284480B1B0F5806F12D0B0F539
:10423000006F2DD113E0B0F5806F1AD0B0F5006F8C
:104240001CD0B0F5406F23D11DE001210420FCF704
:104250000DFE1EE001210820FCF708FE19E00121F7
:104260001020FCF703FE14E001212020FCF7FEFDE6
:104270000FE001214020FCF7F9FD0AE00121802038
:10428000FCF7F4FD05E001210802FCF7EFFD00E07A
:1042900000BF00BFADF8004004208DF80300694660
:1042A0002846FCF727FB38BD2DE9F04707460C46AA
:1042B00016461D46DDE908894FF0020AFEF7A8F907
:1042C00049464046FFF7A5FF00213846FFF752FF59
:1042D000B0B901213846FFF74DFF48F283518842BB
:1042E0000ED102213846FFF745FFB0F5004F07D148
:1042F00003213846FFF73EFF47F6FF71884202D0A0
:104300000120BDE8F08700BF224601213846FFF7B3
:104310005DFF324602213846FFF758FF2A46032147
:104320003846FFF753FF01213846FFF723FF44F4D7
:10433000004188420DD102213846FFF71BFFB042F1
:1043400007D103213846FFF715FFA84201D100200D
:10435000D7E75FEA0A00AAF1010101F0FF0AD3D111
:104360000120CEE77CB504460D46164608201E49BE
:1043700033462A46CDE9001021460120FFF794FF7D
:104380007CBD10B5044621460120FFF7F3FE10BDA9
:1043900070B504460D462A4621460120FFF716FF58
:1043A00070BD7CB504460D46164610200E493346B6
:1043B0002A46CDE9001021460020FFF775FF7CBD9D
:1043C00010B5044621460020FFF7D4FE10BD70B59D
:1043D00004460D462A4621460020FFF7F7FE70BD31
:1043E0000014014000F8FEBF0010014070B5054602
:1043F0000C46FEF75DFA8820FEF70CFBFEF799FAF3
:104400002846FEF707FBFEF794FA2046FEF702FB6C
:10441000FEF78FFAFEF76CFA0520FCF746F870BD40
:1044200070B504460D4600BF32212020FFF7DEFFA5
:10443000C820FCF73AF8FEF73BFA8920FEF7EAFAC3
:10444000FEF777FA06460120FEF718FB1F490870B1
:104450000120FEF713FB1D4948700120FEF70EFBFB
:104460000120FEF70BFB1A4908700120FEF706FB3E
:1044700017494870FEF73CFA0520FCF716F8134878
:104480004178007801EB0020AF2148434FF6FF71DF
:10449000B0FBF1F02D3820700D484178007801EB29
:1044A0000020642148434FF6FF71B0FBF1F0287003
:1044B000012E02D1002020702870002003490870CE
:1044C000487003490870487070BD00005400002017
:1044D00056000020FE4800BF0100A0F10100FBD102
:1044E00070472DE9F04107460D461646FEF7E0F904
:1044F000EE20FEF78FFAFEF71CFA3846FEF78AFA2E
:10450000FEF717FAFEF7D4F9EF20FEF783FAFEF76D
:1045100010FAF049086000240DE0701EA04204D19A
:104520000020FEF7ABFA285503E00120FEF7A6FABB
:104530002855601CC4B2B442EFDBFEF7D9F9BDE8E0
:10454000F08170B505460C46FEF7B2F9EE20FEF795
:1045500061FAFEF7EEF92846FEF75CFAFEF7E9F994
:104560002046FEF757FAFEF7E4F9FEF7C1F970BDF1
:1045700008B502226946AA20FFF7B3FF9DF80100A3
:104580009DF8001040EA012000B2D34908800222C1
:104590006946AC20FFF7A5FF9DF801009DF80010CB
:1045A00040EA012000B2CD49088002226946AE20CF
:1045B000FFF797FF9DF801009DF8001040EA0120E9
:1045C00000B2C749088002226946B020FFF789FF80
:1045D0009DF801009DF8001040EA0120C1490880C3
:1045E00002226946B220FFF77CFF9DF801009DF88A
:1045F000001040EA0120BC49088002226946B4202C
:10460000FFF76FFF9DF801009DF8001040EA0120C0
:10461000B649088002226946B620FFF762FF9DF87E
:1046200001009DF8001040EA012000B2B049088066
:1046300002226946B820FFF754FF9DF801009DF85B
:10464000001040EA012000B2AA490880022269460F
:10465000BA20FFF746FF9DF801009DF8001040EAE0
:10466000012000B2A449088002226946BC20FFF75D
:1046700038FF9DF801009DF8001040EA012000B2CB
:104680009E49088002226946BE20FFF72AFF9DF856
:1046900001009DF8001040EA012000B2984908800E
:1046A00008BD2DE9F04F8DB04FF00008FFF760FF17
:1046B0002E21F420FFF745FFFFF70CFF022206A989
:1046C000F620FFF70EFF9DF819009DF8181040EA3C
:1046D00001200990342000EB8811F420FFF731FF0E
:1046E000FFF7F8FE032206A9F620FFF7FAFE9DF871
:1046F000180000049DF8191000EB01209DF81A1015
:104700000844C8F1080108410A90784909880998C5
:10471000401A754909884843C4137848B0F9000025
:10472000C0027749B1F90010214490FBF1F604EB87
:10473000060B0BF10800642148430011089008980B
:1047400002F032FA03906F480168039802F08CFA85
:1047500005906C4801684FF07E5002F08DFB03908D
:1047600069480168039802F07FFA0490059902F005
:1047700091F9654908600846006802F0F9F9634953
:104780000860ABF57A6707FB07F000135949B1F9E8
:1047900000104843C4125148B0F900007843C612D3
:1047A00004EB060A4C49B1F900100AEB810101FA49
:1047B00008F1881CC11700EB917189100B914848D2
:1047C000B0F900007843441307FB07F00013484991
:1047D000B1F9001048430614A019801C4FEAA00A42
:1047E000404800880AF500414843C00B0790DDE9C6
:1047F0000A01401A4CF2503141FA08F100FB01F96C
:10480000B9F1004F05D24FEA49010798B1FBF0F525
:1048100003E00798B9FBF0F04500281200FB00F414
:1048200040F6DE3060430414394868430614A0198A
:1048300000F6CF6005EB2015284602F0B5F902908E
:1048400034480168029802F00CFB039002F0F6F87D
:1048500021F000410022304BCDE9040101F0B4FF0A
:104860001AD2284602F0A0F900902A480168009860
:1048700002F0F7FA019002F0E1F821F00041002285
:10488000264BCDE9020101F033FECDE9040101F030
:10489000F1FD2349086002E02248214908602846CA
:1048A00002F082F903901E480168039802F0DCF9D7
:1048B00005901B4801684FF07E5002F0DDFA03902E
:1048C00014480168039802F0CFF9049005992BE091
:1048D000400D030078000020580000205A000020FE
:1048E0005C0000205E0000206000002062000020CC
:1048F0006400002066000020680000206A0000209C
:104900006C0000208800002084000020700000203F
:1049100043E3FFFF7C0000200000594000408F402F
:1049200080000020CDCCCC3D02F0B4F80B490860EB
:104930000B490A48006802F097F9059002F018F94F
:104940000849086008480068012801D10020086073
:10495000044800680DB0BDE8F08F00007C00002026
:104960000000C84274000020780000202DE9F047C4
:104970008CB0FE48006838B9FD48006808B90120CD
:1049800000E00020FA490860FA48006809287CD154
:104990004FF0000AA9E0F84830F81A100120FFF79C
:1049A00016FD1021F548FCF738F800286ED00020DD
:1049B000FFF706FDF24921F81A0031F81A0001F05C
:1049C000EFFE8046EF4AF04B01F03AFF0646002228
:1049D000EE4B01F08DFD044601F04CFDEC4941F831
:1049E0002A00BAF1000F2BD1E1482438006808B939
:1049F000012000E00020DE4924390860E44908680D
:104A0000002102F0FDF918D2E149086802F016F819
:104A100004460022DF4B01F0D7FE0ED2DC490868C5
:104A200002F00CF80646DC4ADC4B01F009FF0446B4
:104A300001F020FDDA49086002E00020D849086052
:104A4000BAF1010F2AD1CA482038006808B90120FC
:104A500000E00020C64920390860CD49486800219F
:104A600002F0CEF91AD2CA49486801F0E7FF0446BD
:104A70000022C84B01F0A8FE10D2C549486801F0D9
:104A8000DDFF0646C74AC84B01E0F3E228E001F02B
:104A9000D7FE044601F0EEFCC4490860BAF1020FEB
:104AA0000DD1B3481838006808B9012000E0002093
:104AB000AF4918390860B6488068BD490860BAF146
:104AC000030F0DD1AA481038006808B9012000E092
:104AD0000020A74910390860AD48C068B549086092
:104AE0000A20FBF7E2FC0AF1010ABAF1040FFFF613
:104AF00052AF4FF0040A4FE0AAF104009E4A32F888
:104B000010100120FFF744FC08219C48FBF785FFAB
:104B100098B30020FFF735FC994921F81A0031F8C5
:104B20001A0001F03DFE8046964A974B01F088FE40
:104B300006460022954B01F0DBFC044601F09AFC8E
:104B4000934941F82A00BAF1050F0DD1884814386D
:104B5000006808B9012000E0002085491439086088
:104B60008B48406994490860BAF1060F0ED180481D
:104B70001C38006810B9012001E008E000207C49E1
:104B80001C390860824880698C49086000BF0A208F
:104B9000FBF78BFC0AF1010ABAF1080FACDB88497C
:104BA0008848FFF73DFCFFF77CFD87490860854892
:104BB000007802F011F8854908608148007802F019
:104BC0000BF8824948608048006801F0E9FD06461C
:104BD00000227F4B01F08CFC044601F04BFC7B492A
:104BE00088607648006801F029FF06460022794B6C
:104BF00001F026FE044601F03DFC7449C8606C4893
:104C0000006801F01BFF06460022724B01F018FEFF
:104C1000044601F02FFC6D4908616748006801F007
:104C20000DFF064600226B4B01F00AFE044601F020
:104C300021FC664948615F48006801F0FFFE0646B6
:104C40000022644B01F0FCFD044601F013FC5F49B7
:104C500088616148008801F0BFFF5C49C8615F4816
:104C6000008801F0B9FF594908624D480068486260
:104C70004E480068886200215948FDF738F9002144
:104C80005848FBF77AFD8321574800F0C9FB4FF4E1
:104C90008061564800F0C4FB5248FBF7A1FC504825
:104CA000001D019051480290002003904FF4806055
:104CB0000490002005908020069000200790089026
:104CC000202009904FF440500A9000200B9001A939
:104CD0004448FBF727FD01214248FBF74EFD012127
:104CE0003F48FDF704F94FF47A70FBF7DEFB4048CC
:104CF000006820B9FEF7F4FD3E490870A2E03C4888
:104D0000006801287CD100213548FDF7F0F800212A
:104D10003448FBF732FD0020374908604FF4FA7041
:104D2000FBF7C3FB01203549C1F8B401002404E0BE
:104D30004FF47A70FBF7B9FB641C0A2CF8DB0121F5
:104D40002748FDF7D4F801212648FBF716FDFDF7AB
:104D5000D7FFFEF77DFD4FF47A70FBF7A6FB4FF40B
:104D60007A70FBF7A2FBFEF730F84AE0040000205F
:104D7000A481234200000020666F0008001001405B
:104D8000E0070020FCA9F1D24D6210400000E04095
:104D9000F007002000000840079964E42C6C0D40E7
:104DA000A0000020BF7D1D3867A464409C00002047
:104DB000B0000020AC000020B8000020B4000020AB
:104DC0009A00002099000020A40000201008002074
:104DD0000088C34000408F40A8000020AA000020A7
:104DE000004400406C000240DC060020DA00002095
:104DF000400000203C000020B4812142008021427C
:104E000020E04FF47A70FBF750FB9DA000F0A6F96C
:104E10009BA000F0A3F94FF47A70FBF746FB8321C7
:104E20009C4800F0FDFA4FF480619B4800F0F8FACE
:104E30004FF47A70FBF739FB0020984908709849C5
:104E4000086018E19548007802287DD195490868E6
:104E500001F0F4FD044622460B4693A1944800F06D
:104E600089F9934893A395A295A1009089482B3086
:104E7000FEF776FC8B49486801F0E0FD04462246C7
:104E80000B4689A18A48001D00F074F98848001D6E
:104E900088A38AA28CA100907E483330FEF760FC84
:104EA0008049886801F0CAFD044622460B467EA16F
:104EB0007F48083000F05EF97D4808307DA37FA26E
:104EC00083A1009073483B30FEF74AFC7549C868DF
:104ED00001F0B4FD044622460B4673A174480C3021
:104EE00000F048F972480C3072A374A27AA10090C5
:104EF00068484330FEF734FC6A49086901F09EFDBA
:104F0000044622460B4668A16948103000F032F989
:104F10006748103067A372A26FA100905D484B30C4
:104F2000FEF71EFC5F49486901F088FD04462246F1
:104F30000B465DA15E48143000F01CF95C4814304B
:104F40005CA368A264A100E08DE00090514853305A
:104F5000FEF706FC5349886901F070FD04462246BD
:104F60000B4651A15248183000F004F9504818304F
:104F700050A35DA258A1009046485B30FEF7F0FBBD
:104F80004849C86901F05AFD044622460B4646A12D
:104F900047481C3000F0EEF845481C3045A347A2B6
:104FA00052A100903B486330FEF7DAFB3D49086AA6
:104FB00001F044FD044622460B463BA13C4820300C
:104FC00000F0D8F83A4820303AA345A247A1009013
:104FD00030486B30FEF7C4FB3249486A01F02EFDC1
:104FE000044622460B4630A13148243000F0C2F876
:104FF0002F4824302FA33BA23CA1009025487330BA
:10500000FEF7AEFB2749886A01F018FD04462246E8
:105010000B4625A12648283000F0ACF8244828305B
:1050200024A331A231A100901A487B30FEF798FBEF
:105030004FF47A70FBF739FA8321164800F0F0F943
:1050400001234FF47A722BA10DA0FDF7EFFD002094
:105050001249087000212B48FCF749FF00212A481B
:10506000FBF78BFB07E00D48007810B901200C49D5
:10507000086000E000BF00BF0CB0BDE8F087000092
:1050800041542B4D49504C434C4F53453D300D0A34
:1050900000000000DC060020DA0000203C000020B8
:1050A000400000201008002025342E31660000004A
:1050B0003C08002035373030000000003000000090
:1050C000333330330000000033333034000000004D
:1050D0003333323300000000333331350000000039
:1050E000310000003200000033000000333331365D
:1050F000000000002B4D49504C4556454E543A2077
:1051000030000000004400406C000240FDF744F80D
:10511000FDF704FD1BE009200D490860FFF726FCA0
:105120000C48006840B900200B49086000BF0A48DD
:1051300000681E28FBD307E000200749086000BF75
:10514000054800680F28FBD3002003490860E2E708
:105150000000002040000020380000200FB4044967
:1051600010B503AA029800F029FC10BC5DF814FBEE
:10517000340000200FB41CB5074B06AA7B446946D7
:105180000090059800F0EBFB0020694600F0FAFB68
:105190001CBC5DF814FB00000508000070B5044657
:1051A00085690068C10601D5302600E02026C007C9
:1051B00007D070BDD4E9012130469047206A401CD9
:1051C00020626D1EF6D570BD70B504468569007805
:1051D000C00707D170BDD4E9012120209047206A83
:1051E000401C20626D1EF6D570BD70B50C4605469C
:1051F000012A05D02878800600D5EA69002302E05C
:10520000012305E05B1C934202D2E05C0028F9D147
:10521000A869E618C01AA861286A184428622846B6
:10522000FFF7BCFF04E0D5E9012114F8010B90471A
:10523000B442F8D32846FFF7C7FF70BD2DE9F04709
:105240004FF0000A89460446C0F820A02046E168D5
:105250008847002876D0252806D0D4E90121904738
:10526000206A401C2062F1E7E1682046002588475B
:10527000C4F81CA006460027C4F818A02A2E09D09E
:10528000304601F0D9F838B304EB8708303EC8F84F
:10529000186019E059F8041B204604EB870291615D
:1052A000E1688847012F064618D1E069002820DA16
:1052B00025F020051DE0D8F8180000EB800006EB73
:1052C00040003038C8F818002046E1688847064694
:1052D00001F0B2F80028EED1012F0AD02E2E08D10D
:1052E0002046E16888477F1C0646022F45F02005CE
:1052F000C4DBA069002803DA404245F00105A06143
:10530000E80701D025F01005B6B1A6F14100192833
:1053100002D8203645F400654A46314620462560CD
:105320004D46FAF73FFF58B1012806D0ED1D25F094
:10533000070000F1080989E704E005F1040985E7A1
:1053400030468AE7206ABDE8F08730B505460B464F
:105350002A4613F8014B12F8010B08B1A042F8D00D
:105360001CB1002802D06D1CF1E7284630BD421E5A
:1053700012F8013F002BFBD111F8013B002B02F882
:10538000013BF9D17047032A40F2308010F0030C42
:1053900000F0158011F8013BBCF1020F624498BF88
:1053A00011F801CB00F8013B38BF11F8013BA2F125
:1053B000040298BF00F801CB38BF00F8013B11F0A0
:1053C000030300F00D83083AC0F0088051F8043B55
:1053D000083A51F804CBA0E80810F5E7121D5CBFAD
:1053E00051F8043B40F8043BAFF30080D20724BFE0
:1053F00011F8013B11F801CB48BF11F8012B24BF74
:1054000000F8013B00F801CB48BF00F8012B7047C2
:1054100002F0FF0343EA032242EA024200F002B82C
:105420004FF000020429C0F0128010F0030C00F0CD
:105430001B80CCF1040CBCF1020F18BF00F8012B4B
:10544000A8BF20F8022BA1EB0C0100F00DB85FEA19
:10545000C17C24BF00F8012B00F8012B48BF00F8E5
:10546000012B70474FF0000200B513469446964654
:10547000203922BFA0E80C50A0E80C50B1F1200167
:10548000BFF4F7AF090728BFA0E80C5048BF0CC015
:105490005DF804EB890028BF40F8042B08BF704773
:1054A00048BF20F8022B11F0804F18BF00F8012BE5
:1054B000704700004FF0013C50F8042B51F8043BBA
:1054C0009A4221D1A2EB0C03934313EACC1317D1D8
:1054D00050F8042B51F8043B9A4215D1A2EB0C036F
:1054E000934313EACC130BD150F8042B51F8043B2F
:1054F0009A4209D1A2EB0C03934313EACC13DBD0FD
:105500004FF00000704700BFD01A01BAB1FA81F124
:1055100001F0180122FA01F0CB40C1F12001DBB209
:10552000C0B2C01A2CFA01F3D11A914311EAC31187
:10553000E6D1704770477047704770472DE9FF4FBD
:105540000C461E464FF0FF378BB0D2E90001DDF864
:1055500060800A908A46C1F30A5505B93D4600218C
:1055600008464FF00000BAF1000F00F4400005DAE1
:1055700000EB80004FF4400101EA50004FEA9059DF
:10558000B9F1010F00DDB9460A9850EA4A000ED081
:1055900044F61050A5F2FF3545432F14B8F1000F23
:1055A0001ED07542291E1EDDC9F100021CE0B8F1B3
:1055B000010F4FF0000001D0302103E0F24305E07D
:1055C0002154401CB042FBDB304600220021215414
:1055D0000B99C1F80880C1E900200FB0BDE8F08F39
:1055E000BD1B6D1CDEE74A4600DA694206A800F0E2
:1055F000B7FA06AB93E8070003AB83E80700504611
:105600000A9900F04AFB8DE80700A0F500501F380A
:1056100000900398002D09DD42F21F014A4608441C
:1056200003A90390684600F0A9FD08E0A0F500502A
:105630004A461F3803A90390684600F0B3FD8DE881
:1056400007000004000C03D04FF0FF30410800E0D9
:105650001046B8F1000F03D00022009215461EE05C
:10566000751E05D400F0F6F9303262556D1EF9D57D
:10567000B3460122084302D000227F1C04E02078B8
:10568000302801D100227F1E002A099786D01DE014
:10569000112D07DA00F0DEF9303262556D1C50EA48
:1056A0000102F5D1084302D00098C8B10EE00021F4
:1056B000681E05E0235C625C63542254401E491C52
:1056C0008142F7DBAB46A81B401E0990002004F87E
:1056D0000B000B98099AC0F80880C0E9002B7CE702
:1056E00011264FF0000859E72DE9F04F884604468F
:1056F000D21D22F0070191B0D1E90001CDE90A01E4
:1057000000F086FE02460B98C00F01D02D2007E066
:105710002068810701D52B2002E0202101EAC0008A
:10572000032A099001D0072A05DB0346414620469B
:1057300000F0D6F90BE12078800601D5E06900E0A1
:105740000620B8F1650F814606D0B8F1660F18D073
:10575000B8F1670F70D131E00020B9F1110F00905E
:1057600001DB112301E009F101030AAA01A90CA838
:10577000FFF7E4FEDDE90C70002609F10105834620
:1057800047E001204B4600904FF000470AAA01A9CC
:105790000CA8FFF7D3FEDDE90DB00C995D4600269D
:1057A00010B909F101000D18B9EB050003D4C0F1DF
:1057B000FF3609F10105A5EB09002BE0B9F1010F56
:1057C00001DA4FF001090020B9F1110F00904846AD
:1057D00001DD112300E003460AAA01A90CA8FFF786
:1057E000ADFEDDE90C704D460026834620780007AB
:1057F0000AD4AB4500DA5D4601A8012D04DD41194C
:1058000011F8011C302907D04F4502DA17F1040FB7
:1058100004DA012082460FE06D1EEEE7002F02DC65
:10582000ED1B3E4403E0781CA84200DD7D1CB81B44
:1058300000F1010A4FF000472078000703D4AA4581
:1058400001DB4FF0FF3A0021B7F1004F0DF14308A3
:105850008DF8431024D002202B23002F01DA7F4241
:105860002D230A21021EA0F1010000DC5FB197FB8D
:10587000F1FC97FBF1F201FB1C7C17460CF1300C9C
:1058800008F801CDEEE7A8F10100037021880905B1
:1058900001D5452100E06521A0F1010800F8011CB7
:1058A00009980FA9A1EB0807FF1D00B101204119BC
:1058B00001EBEA70A1693844081A401EA061207803
:1058C000C00602D42046FFF769FC099828B1D4E944
:1058D00001219047206A401C20622078C00622D512
:1058E0002046FFF75BFC1EE0002E04DBB34502DD23
:1058F00001A8805D00E03020D4E901219047206AB2
:10590000401C2062761CAAF101005FEA000A0AD15D
:1059100000F09CF8C0680168405CD4E90121904720
:10592000206A401C2062281EA5F10105DCDC07E08E
:10593000D4E9012118F8010B9047206A401C20622D
:10594000381EA7F10107F3DC2046FFF73DFC0320DA
:1059500011B043E601694A1C02610878704700B53E
:105960008FB0CDE901310021059105497944CDE998
:10597000031011466846FFF761FC0FB000BD000040
:10598000E5FFFFFF0A6802F8010B0A60704710B5D7
:10599000436913B1AFF3008001E0FFF726FC01205B
:1059A00010BD127800F124010A7000224A70012211
:1059B000EDE711684FF0FF32E9E70000074B70B5E3
:1059C0000D467B44FFF7CBFF0446284600F036F92E
:1059D00010B14FF0FF3070BD204670BD57CBFFFFB8
:1059E00010B5203AC0F00B80B1E81850203AA0E87A
:1059F0001850B1E81850A0E81850BFF4F5AF5FEAAE
:105A0000027C24BFB1E81850A0E8185044BF18C960
:105A100018C0BDE810405FEA827C24BF51F8043B07
:105A200040F8043B08BF7047D20728BF31F8023B5B
:105A300048BF11F8012B28BF20F8023B48BF00F8EF
:105A4000012B7047004870476808002000487047E5
:105A50008808002030B5B0F10A024FEA900E71F1CB
:105A600000034EEA817EB0EB0E0061EB91014FEA3C
:105A7000101E4EEA017E10EB0E0041EB11114FEAB1
:105A8000102E4EEA016E10EB0E0041EB11214FEA91
:105A9000104E4EEA014E10EB0E0041EB1141401842
:105AA00041F100014FEAD00040EA41704FEAD101D4
:105AB00010EB80054FEA810444EA907444EB010442
:105AC0006D1944EB0404521BA3414FF0000348BF7F
:105AD0000A3200D530BD401C41F1000130BD00004C
