:020000040800F2
:10000000A00E0020ED0100082D0200082F020008BC
:10001000390200083D02000841020008000000000B
:100020000000000000000000000000004502000881
:100030004702000800000000490200084B020008C7
:10004000070200080702000807020008070200086C
:10005000070200080702000807020008070200085C
:10006000070200080702000807020008070200084C
:10007000070200089723000807020008070200088B
:10008000070200080702000807020008070200082C
:10009000070200080702000807020008070200081C
:1000A000070200080702000807020008070200080C
:1000B000472200080702000807020008070200089C
:1000C00007020008070200080702000807020008EC
:1000D00007020008070200080702000807020008DC
:1000E00007020008070200080702000807020008CC
:1000F00007020008070200080702000807020008BC
:1001000007020008070200080702000807020008AB
:10011000070200080702000807020008070200089B
:10012000070200080702000807020008070200088B
:1001300000F002F800F04AF80AA090E8000C8244AF
:100140008344AAF10107DA4501D100F03FF8AFF28C
:10015000090EBAE80F0013F0010F18BFFB1A43F0A5
:1001600001031847B86A0000D86A0000103A24BF9B
:1001700078C878C1FAD8520724BF30C830C144BF0C
:1001800004680C607047000000230024002500264E
:10019000103A28BF78C1FBD8520728BF30C148BFEA
:1001A0000B607047662906F0E884732905F00D821C
:1001B000002070471FB505F055FA0400002000210B
:1001C00005F04EFFE0601FBD10B510BD05F046FB09
:1001D0001146FFF7EFFF04F0B3FD05F064FB03B435
:1001E000FFF7F2FF03BC02F051F900000948804715
:1001F00009480047FEE7FEE7FEE7FEE7FEE7FEE709
:10020000FEE7FEE7FEE7FEE704480549054A064B20
:10021000704700002F03000831010008A0080020EB
:10022000A00E0020A00A0020A00A0020704702E0D3
:10023000012006490860FBE700BFFEE700BFFEE7BC
:1002400000BFFEE77047704770477047040000200A
:100250000CB50020019000906C48006840F480309C
:100260006A49086000BF6948006800F400300090E7
:100270000198401C0190009818B90198B0F5A06F42
:10028000F1D16248006800F4003010B10120009004
:1002900001E0002000900098012843D15C480068EC
:1002A00040F010005A4908600846006820F003003A
:1002B00008600846006840F0020008605348406843
:1002C000524948600846406848600846406840F423
:1002D000806048600846406820F47C10486008460A
:1002E000406840F4E81048600846006840F08070BC
:1002F000086000BF4548006800F000700028F9D091
:100300004248406820F00300404948600846406881
:1003100040F00200486000BF3C48406800F00C001C
:100320000828F9D10CBD10B5FFF792FF10BD10B52C
:100330003648006840F001003449086008464068CB
:10034000344908403149486008460068324908404D
:100350002E4908600846006820F48020086008469E
:10036000406820F4FE0048604FF41F008860FFF7EB
:10037000DAFF4FF000602949086010BD10B5002178
:1003800000200022214B5B6803F00C0121B10429FD
:1003900006D0082928D107E0214B224C236027E012
:1003A0001F4B204C236023E0184B5B6803F4701054
:1003B000164B5B6803F48032022303EB904022B9B2
:1003C000194B4343174C23600DE0104B5B6803F45B
:1003D000003323B1144B4343124C236003E0104B12
:1003E0004343104C236003E00D4B0E4C236000BFD1
:1003F00000BF064B5B68C3F303130C4CE15C094B75
:100400001B68CB40074C236010BD00000010024069
:10041000002002400000FFF8FFFFF6FE08ED00E0BC
:1004200000127A000800002000093D000C000020A6
:1004300010B56FF0040000F0B4F82E4800682E49A3
:10044000B0FBF1F02D4908700846007800EB400140
:10045000C1EBC0104FF6FF7101EAC00028490880C7
:1004600010BD0146254A12784A434FF0E0235A61F5
:1004700000229A611A46126942F001021A6100BF15
:100480004FF0E022106900F001021AB100F480324E
:10049000002AF5D04FF0E022126922F001024FF05D
:1004A000E0231A6100229A6170470146144A1288BB
:1004B0004A434FF0E0235A6100229A611A461269BA
:1004C00042F001021A6100BF4FF0E022106900F013
:1004D00001021AB100F48032002AF5D04FF0E02278
:1004E000126922F001024FF0E0231A6100229A61A2
:1004F000704700000800002000127A001C00002055
:100500001E00002031490143314A1160704770B527
:10051000002100230F22C47804B32D4C246804F476
:10052000E064C4F5E064210AC1F10403CA404478E0
:1005300004FA03F18478144021430901254C06781C
:10054000A155047804F01F050124AC4005786D1115
:10055000AD0005F1E025C5F8004109E0047804F09C
:100560001F050124AC401C4D0678761145F8264045
:1005700070BD1A4A0A400243154B1B1F1A60704790
:1005800039B1134A121D12680243114B1B1D1A6028
:1005900006E00F4A121D126882430D4B1B1D1A60A4
:1005A0007047042808D14FF0E021096941F00401A7
:1005B0004FF0E022116107E04FF0E021096921F0DE
:1005C00004014FF0E0221161704700000000FA05BD
:1005D0000CED00E000E400E080E100E080FFFF1FA0
:1005E00001684FF6FE721140016000210160416018
:1005F0008160C1608D49884208D18C4908394968B9
:1006000041F00F01894A083A51608AE08749143164
:10061000884208D185490839496841F0F001834A88
:10062000083A51607DE081492831884208D17F49EC
:100630000839496841F470617C4A083A516070E0B9
:100640007A493C31884208D178490839496841F4EF
:100650007041764A083A516063E0744950318842EB
:1006600008D172490839496841F470216F4A083A43
:10067000516056E06D496431884208D16B490839B0
:10068000496841F47001694A083A516049E0674994
:100690007831884208D165490839496841F070616C
:1006A000624A083A51603CE06149884206D1011F24
:1006B000096841F00F01021F116032E05C491431FA
:1006C000884208D15A49091F096841F0F001584A87
:1006D000121F116025E056492831884208D154493B
:1006E000091F096841F47061514A121F116018E036
:1006F0004F493C31884208D14D49091F096841F4EE
:1007000070414B4A121F11600BE049495031884239
:1007100007D14749091F096841F47021444A121F53
:100720001160704710B50022026847F6F0739A43D3
:100730000C6A8B6823430C6923434C6923438C69FF
:100740002343CC6923434C6A23438C6A23431A43D3
:100750000260CB6843600B6883604B68C36010BD68
:100760000021016041608160C1600161416181617E
:10077000C161016241628162704721B1026842F049
:100780000102026004E002684FF6FE731A40026044
:1007900070471AB103680B43036002E003688B43A0
:1007A00003607047416070470146486880B27047F7
:1007B00001460020002201F080531BB11C4B083B76
:1007C0001A6802E0194B083B1A6802EA01030BB1F0
:1007D000012000E00020704700F0805119B1144959
:1007E000091F086002E01149083948607047014656
:1007F0000020002201F080531BB10D4B083B1A680A
:1008000002E00A4B083B1A6802EA01030BB101201F
:1008100000E00020704700F0805119B10449091F21
:10082000086002E00149083948607047080002404A
:100830000804024010B50446CC48844208D1012186
:10084000042000F02DFB0021042000F029FB46E0ED
:10085000C748844208D10121082000F021FB002173
:10086000082000F01DFB3AE0C248844208D1012173
:10087000102000F015FB0021102000F011FB2EE0ED
:10088000BD48844208D10121202000F009FB00214D
:10089000202000F005FB22E0B848844208D1012165
:1008A000402000F0FDFA0021402000F0F9FA16E0A7
:1008B000B348844208D10121802000F0F1FA0021E0
:1008C000802000F0EDFA0AE0AE48844207D1012111
:1008D000801500F0E5FA0021A01500F0E1FA10BD46
:1008E00010B50121084600F0DBFA0021012000F0DC
:1008F000D7FA10BD2DE9F041024600250026002060
:1009000000230024002791F803C00CF00F0591F894
:1009100003C00CF0100CBCF1000F03D091F802C022
:100920004CEA050591F800C0BCF1000F31D0146805
:1009300000202BE04FF0010C0CFA00F3B1F800C0DE
:100940000CEA03069E4220D183004FF00F0C0CFAF4
:1009500003F7BC4305FA03FC4CEA040491F803C016
:10096000BCF1280F06D14FF0010C0CFA00FCC2F8C4
:1009700014C00AE091F803C0BCF1480F05D14FF054
:10098000010C0CFA00FCC2F810C0401C0828D1D39E
:100990001460B1F800C0BCF1FF0F34DD54680020D2
:1009A0002EE000F1080C4FF0010808FA0CF3B1F842
:1009B00000C00CEA03069E4221D183004FF00F0CC9
:1009C0000CFA03F7BC4305FA03FC4CEA040491F863
:1009D00003C0BCF1280F05D100F1080C08FA0CF88F
:1009E000C2F8148091F803C0BCF1480F07D100F1A0
:1009F000080C4FF0010808FA0CF8C2F81080401CEF
:100A00000828CED35460BDE8F0814FF6FF71018015
:100A1000022181700421C170704702460020936852
:100A20000B400BB1012000E00020704701468868B0
:100A300080B2704702460020D3680B400BB1012002
:100A400000E0002070470146C86880B2704701612D
:100A50007047416170470AB1016100E04161704730
:100A6000C16070474FF480320A43826181618261C4
:100A700082698269704702460020434B18684FF62E
:100A80008073184040EA021008433F4B18607047DB
:100A90003E49C8617047F0B50A4600230024002192
:100AA000002500F00046B6F1004F02D1364EF16944
:100AB00001E0354E7168C0F3034583B200F440167F
:100AC000B6F5401F08D121F070612F4E766826F0F0
:100AD00070662D4F7E6012E000F48016B6F5801F20
:100AE00006D1032606FA05F4A14341F0706106E041
:100AF000460D360103FA06F6B14341F0706122B1AA
:100B0000460D360103FA06F6314300F00046B6F111
:100B1000004F02D11C4EF16101E01B4E7160F0BD2F
:100B200030B500228B071C0F0F2303FA04F2164B7B
:100B300008338C1053F824309343134C08348D1031
:100B400044F8253023468C1053F824308C07240FAA
:100B500000FA04F423430C4C08348D1044F825307B
:100B600030BD0A49DC3108607047000000080140D0
:100B7000000C014000100140001401400018014029
:100B8000001C014000200140000001400000204204
:100B9000DF48006840F00100DD4908600846406811
:100BA000DC490840DA49486008460068DA490840EC
:100BB000D74908600846006820F48020086008468D
:100BC000406820F4FE0048604FF41F0088607047C2
:100BD000CF49096821F48031CD4A11601146096876
:100BE00021F480211160B0F5803F03D0B0F5802F53
:100BF0000ED106E0C649096841F48031C44A11604B
:100C000007E0C349096841F4A021C14A116000E02E
:100C100000BF00BF704710B501460022002300202E
:100C20004A11012A02D1BA4C236806E0022A02D1F5
:100C3000B74C236A01E0B64C636A01F01F0201243D
:100C400094401C400CB1012000E0002010BD38B5DC
:100C5000002000900024002500BF3120FFF7DBFFBB
:100C600005460098401C00900098B0F5A06F01D098
:100C7000002DF2D03120FFF7CEFF08B1012400E0B3
:100C80000024204638BD01460020A14A106820F00B
:100C9000F80040EAC10010607047A0490860704742
:100CA000024600209A4B586820F47C1042EA010367
:100CB0001843974B5860704798490866704701463B
:100CC0000020934A506820F00300084350607047AA
:100CD0008F48406800F00C007047014600208C4AA5
:100CE000506820F0F0000843506070470146002033
:100CF000874A506820F4E06008435060704701461E
:100D00000020834A506820F4605040EAC1005060DF
:100D1000704729B17E4A527A02437D4B5A7204E0F1
:100D20007B4A527A82437A4B5A7270477B49D83158
:100D30000860704701460020754A506820F4404022
:100D40000843506070470021714A20321170704A88
:100D500082F82010012802D004280AD104E00121E1
:100D60006B4A2032117005E00521694A203211706A
:100D700000E000BF00BF70476949086070476449E0
:100D8000096A0143624A1162704765494439086043
:100D9000704730B500210022002400235C4D6D68AF
:100DA00005F00C0121B1042905D0082923D105E063
:100DB0005C4D056022E05B4D05601FE0544D6D68A1
:100DC00005F47012524D6D6805F48034022505EB70
:100DD00092421CB9544D554305600BE04C4D6D6873
:100DE00005F400351DB1504D5543056002E04D4DF1
:100DF0005543056002E04B4D056000BF00BF444D08
:100E00006D6805F0F0010909484D6B5C0568DD402F
:100E100045603F4D6D6805F4E061090A434D6B5C28
:100E20004568DD4085603A4D6D6805F46051C90A3A
:100E30003E4D6B5C4568DD40C560354D6D6805F421
:100E40004041890B3A4D6B5CC568B5FBF3F5056114
:100E500030BD29B12E4A526902432D4B5A6104E03C
:100E60002B4A526982432A4B5A61704729B1284A5A
:100E700092690243264B9A6104E0254A92698243B3
:100E8000234B9A61704729B1214AD2690243204B12
:100E9000DA6104E01E4AD26982431D4BDA61704771
:100EA00029B11B4AD2680243194BDA6004E0184AA0
:100EB000D2688243164BDA60704729B1144A12692E
:100EC0000243134B1A6104E0114A12698243104B2A
:100ED0001A61704712494039086070470F49C86469
:100EE00070470B49C87170470948406A40F08070EC
:100EF00007494862704701460020054A92680A4047
:100F00000AB1012000E00020704701498872704753
:100F1000001002400000FFF8FFFFF6FE0000424212
:100F20008004424200127A0000093D0020000020A7
:100F30003000002010B50446FE48844208D101214B
:100F4000C014FFF7ADFF0021E014FFF7A9FFC4E0D4
:100F5000B4F1804F08D101210846FFF7AEFF002110
:100F60000120FFF7AAFFB8E0F348844208D101212D
:100F70000220FFF7A2FF00210220FFF79EFFACE056
:100F8000EE48844208D101210420FFF796FF00219A
:100F90000420FFF792FFA0E0E948844208D1012134
:100FA0000820FFF78AFF00210820FFF786FF94E062
:100FB000E448844208D101211020FFF77EFF002180
:100FC0001020FFF77AFF88E0DF48844208D1012132
:100FD0002020FFF772FF00212020FFF76EFF7CE04A
:100FE000DA48844208D101214014FFF759FF00215B
:100FF0006014FFF755FF70E0D548844209D1012104
:10100000C804FFF74DFF00214FF40020FFF748FF11
:1010100063E0D048844209D101210805FFF740FF71
:1010200000214FF48010FFF73BFF56E0CA4884428E
:1010300009D101214805FFF733FF00214FF40010CB
:10104000FFF72EFF49E0C548844208D10121402026
:10105000FFF733FF00214020FFF72FFF3DE0C0489E
:10106000844208D101218020FFF727FF0021802042
:10107000FFF723FF31E0BB48844208D101218015EE
:10108000FFF71BFF0021A015FFF717FF25E0B6486B
:10109000844209D101210804FFF702FF00214FF427
:1010A0008030FFF7FDFE18E0B048844209D10121ED
:1010B0004804FFF7F5FE00214FF40030FFF7F0FE83
:1010C0000BE0AB48844208D101218804FFF7E8FE19
:1010D00000214FF48020FFF7E3FE10BD00220288BC
:1010E000944B98420ED0994B98420BD0B0F1804F60
:1010F00008D0914B984205D0904B984202D0904B2B
:10110000984204D14FF68F731A404B881A438D4B87
:10111000984207D08C4B984204D04FF6FF431A40B8
:10112000CB881A4302808B8883850B880385814B8B
:1011300098420BD0854B984208D08B4B984205D0F3
:101140008A4B984202D08A4B984201D10B7A03868F
:1011500001238382704770B5002400220023058C90
:101160004FF6FE7635400584028C8388048B4FF65B
:101170008F752C40B51E2C400D882C43751E2A40BF
:101180000D892A434D882A436A4DA8420BD06F4DE2
:10119000A84208D0744DA84205D0744DA84202D090
:1011A000734DA84213D14FF6F7752A404D892A4353
:1011B0004FF6FB752A408D882A434FF6FF652B407A
:1011C0004FF6FF552B408D892B43CD892B438380D0
:1011D0000483CD888586028470BD70B5002400220A
:1011E0000023058C4FF6EF7635400584028C83880A
:1011F000048B48F6FF752C404FF6FF452C400D88B8
:101200004FF6FF7606EA05252C434FF6DF752A4098
:101210000D8906EA05152A434D8806EA05152A4375
:10122000444DA84202D0494DA8421DD14FF67F75CA
:101230002A404D894FF6FF7606EA05152A434FF6F8
:10124000BF752A408D8806EA05152A434FF6FF35FB
:101250002B404FF2FF752B408D8906EA85052B4305
:10126000CD8906EA85052B4383800483CD880587D5
:10127000028470BD70B5002400220023058C4FF657
:10128000FF6635400584028C8388848B4FF68F750A
:101290002C404FF6FC752C400D882C434FF6FF5523
:1012A0002A400D894FF6FF7606EA05252A434D8828
:1012B00006EA05252A431F4DA84202D0234DA84225
:1012C0001DD14FF2FF752A404D894FF6FF7606EA91
:1012D00005252A434FF6FF352A408D8806EA052565
:1012E0002A434EF6FF752B404DF6FF752B408D8936
:1012F00006EA05152B43CD8906EA05152B438380A5
:101300008483CD888587028470BD70B50022002358
:101310000024058C4EF6FF7635400584038C8488C6
:10132000828B48F6FF752A404FF6FF452A400D880C
:1013300020E00000002C01400004004000080040B4
:10134000000C004000100040001400400034014038
:10135000004C014000500140005401400018004082
:10136000001C0040002000400040014000440140BB
:10137000004801404FF6FF7606EA05252A434DF660
:10138000FF752B400D8906EA05352B434D8806EA8B
:1013900005352B43FA4DA84202D0FA4DA84208D198
:1013A0004BF6FF752C408D894FF6FF7606EA8515C2
:1013B0002C4384808283CD88A0F84050038470BD84
:1013C000828B4FF2FF331A408283828B4FF6FF737A
:1013D00003EA01231A4382837047F0B50C46154691
:1013E000002200210026078C4EF6FF7C07EA0C073E
:1013F0000784828B018C4FF6FF7707EA043640F6AC
:10140000FF473A404FF6FF7707EA05273A434FF682
:10141000FF7707EA03373A43D94FB8420ED0D94F86
:10142000B8420BD0B0F1804F08D0D74FB84205D0AA
:10143000D64FB84202D0D64FB84206D14DF6FF770C
:10144000394046F48057394305E047F6FF573940A5
:1014500044F48057394382830184F0BD828B4FF678
:10146000F3731A408283828B0A4382837047F0B5FC
:101470000C461546002200210026078C4FF6FF6C13
:1014800007EA0C070784828B018C4FF6FF7707EA87
:1014900004264FF60C773A404FF6FF7707EA03171A
:1014A0002F433A43B64FB8420ED0B64FB8420BD096
:1014B000B0F1804F08D0B44FB84205D0B34FB84216
:1014C00002D0B34FB84206D14FF6FF57394046F429
:1014D0008077394305E04FF2FF57394044F4807775
:1014E000394382830184F0BD028B4FF2FF331A40EF
:1014F0000283028B4FF6FF7303EA01231A43028330
:101500007047F0B50C461546002200210026078CD6
:101510004FF6EF7C07EA0C070784028B018C4FF62D
:10152000FF7707EA041640F6FF473A404FF6FF7789
:1015300007EA03373A434FF6FF7707EA05273A43AE
:101540008F4FB8420ED08F4FB8420BD0B0F1804FC2
:1015500008D08D4FB84205D08C4FB84202D08C4F86
:10156000B84206D14FF6DF77394046F010073943CD
:1015700005E04FF65F77394044F0100739430283A6
:101580000184F0BD028B4FF6F3731A400283028B85
:101590000A4302837047F0B50C461546002200212D
:1015A000068C4FF6FE773E400684028B018C4FF688
:1015B0000C7632407E1C06EA03162E433243704EF0
:1015C000B0420ED06F4EB0420BD0B0F1804F08D079
:1015D0006D4EB04205D06D4EB04202D06C4EB0425E
:1015E00006D14FF6FD76314044F00106314305E067
:1015F0004FF6F576314044F0010631430283018411
:10160000F0BD70B505460C465D4885420ED05D487C
:1016100085420BD0B5F1804F08D05B48854205D09C
:101620005A48854202D05A48854200D100E000BFA6
:10163000208850B92389A28861882846FFF7ABFF2C
:10164000E1882846FFF79EFF25E0208804280AD17C
:101650002389A28861882846FFF753FFE18828463E
:10166000FFF742FF17E0208808280AD12389A288C3
:1016700061882846FFF7FBFEE1882846FFF7EEFE6B
:1016800009E02389A28861882846FFF7A6FEE18841
:101690002846FFF795FE70BD2DE9F04105460C4642
:1016A00000260127608808B9022600E00026A088ED
:1016B000012801D1022700E001272088A0B9238951
:1016C000A28861882846FFF766FFE1882846FFF771
:1016D00059FF23893A4631462846FFF712FFE18831
:1016E0002846FFF701FF13E02389A2886188284676
:1016F000FFF707FFE1882846FFF7F6FE23893A4601
:1017000031462846FFF747FFE1882846FFF73AFFB2
:10171000BDE8F0810A884B881A438B881A43CB882E
:101720001A430B891A434B891A438B891A43A0F831
:10173000442070474FF6FF71818000210180C180F5
:101740004180017270470021018041808180C18009
:10175000018141818181C1817047002101804180E7
:10176000012181800021C180018170470021018019
:1017700041808180C1800181418181817047000069
:10178000002C0140003401400004004000080040EB
:10179000000C004021B1028842F00102028004E006
:1017A00002884FF6FE731A400280704731B1B0F8DC
:1017B000442042F40042A0F8442005E0B0F8442060
:1017C000C2F30E02A0F8442070471AB183890B437C
:1017D000838102E083898B438381704781827047D4
:1017E00041EA0203A0F8483070471AB183890B43DD
:1017F000838102E083898B438381704701894FF69F
:10180000F8721140018170470A46002101894FF6A4
:101810008F73194011430181704730B504460D465E
:1018200029462046FFF7F0FF208940F0070020817D
:1018300030BD2DE9F04104460D4616461F46602D89
:1018400006D13B46012231462046FFF75AFE05E00D
:101850003B46012231462046FFF79DFE29462046A1
:10186000FFF7D2FF208940F007002081BDE8F0811A
:1018700030B50C4600210189C9B24FF6FF7505EA63
:101880000325154325432943018130BD2DE9F0414E
:1018900005460E4617469846002443463A463146CA
:1018A0002846FFF7E5FF2C894FF6F870044044F016
:1018B00007044FF68F70044044F070042C81BDE89B
:1018C000F081F0B504460D4616461F463B463246AB
:1018D00029462046FFF7CCFF208940F48040208134
:1018E000F0BD0185828270470A46002101884FF6CB
:1018F0008F731940114301807047F0B50C461546AF
:101900001E460021002200230189028B038C4FF622
:10191000F877394021434FF6FC473A4040F201172F
:101920003A434FF6DD773B404FF6FF7707EA06175D
:101930002F433B43018102830384F0BD0A4600210B
:10194000018B4FF68F7319401143018370470A468C
:101950000021018B48F6FF7319404FF6FF7303EA2D
:1019600002231943018370470A460021818B4FF6F9
:101970008F7319401143818370470A460021818B80
:1019800048F6FF7319404FF6FF7303EA0223194329
:101990008183704721B1028842F08002028004E016
:1019A00002884FF67F731A400280704721B1828807
:1019B00042F00402828004E082884FF6FB731A40F2
:1019C0008280704721B1828842F00802828004E060
:1019D00082884FF6F7731A408280704721B182885F
:1019E00042F00102828004E082884FF6FE731A40C2
:1019F000828070470A460021018B4FF6F773194029
:101A00001143018370470A460021018B4FF2FF7397
:101A100019404FF6FF7303EA02231943018370470D
:101A20000A460021818B4FF6F773194011438183D9
:101A300070470A460021818B4FF2FF7319404FF621
:101A4000FF7303EA02231943818370470A4600218A
:101A5000018B4FF6FB7319401143018370470A460F
:101A60000021018B4FF6FF3319404FF6FF7303EA55
:101A700002231943018370470A460021818B4FF6E8
:101A8000FB7319401143818370470A460021818B03
:101A90004FF6FF3319404FF6FF7303EA0223194351
:101AA000818370470A460021018B4FF67F731940EE
:101AB0001143018370470A460021018BC1F30E01D7
:101AC0004FF6FF7303EA02231943018370470A4666
:101AD0000021818B4FF67F7319401143818370473A
:101AE0000A460021818BC1F30E014FF6FF7303EA12
:101AF00002231943818370470A460021018C4FF667
:101B0000FD7319401143018470470A460021018C7E
:101B10004FF6F77319401143018470470A460021BC
:101B2000018C4FF6DF7319404FF6FF7303EA02137F
:101B30001943018470470A460021018C4FF67F73D8
:101B400019404FF6FF7303EA0213194301847047EB
:101B50000A460021018C4FF6FF5319404FF6FF73E0
:101B600003EA02231943018470470A460021018CCD
:101B70004FF2FF7319404FF6FF7303EA0223194334
:101B8000018470470A460021018C4DF6FF7319400D
:101B90004FF6FF7303EA023319430184704730B5EF
:101BA000002301248C40A3B2048C9C430484048C45
:101BB00002FA01F5ADB22C43048430BD30B50023E8
:101BC00004248C40A3B2048C9C430484048C02FA49
:101BD00001F5ADB22C43048430BD70B5034600203E
:101BE00000241846183001258D40ACB21D8CA54349
:101BF0001D8409B1082909D100EB6100056825F0B1
:101C0000700505600568154305600EE00D1FC5F3FE
:101C10004E052844056825F4E045056005684FF643
:101C2000FF7606EA02263543056070BD21B10288C1
:101C300042F00202028004E002884FF6FD731A406F
:101C40000280704721B1028842F00402028004E061
:101C500002884FF6FB731A400280704721B18288D8
:101C600042F08002828004E082884FF67F731A403F
:101C70008280704702884FF6F7731A40028002880C
:101C80000A430280704782884FF68F731A40828021
:101C900082880A438280704702894FF6F8731A409F
:101CA000028102890A430281704702894FF67F73DD
:101CB0001A40028102890A43028170478184704779
:101CC000818570478186704701877047818770479B
:101CD000A0F84010704702884FF6FF431A40028078
:101CE00002880A43028070470146888E7047014689
:101CF000088F70470146888F70470146B1F8400051
:101D000070470146888C70470146088D704702462F
:101D10000020138A0B400BB1012000E00020704727
:101D2000CA430282704730B50246002000230024D7
:101D3000158A05EA0103958905EA010413B10CB17E
:101D4000012000E0002030BDCA430282704700003D
:101D500010B50446FB48844209D101218803FFF7EE
:101D60009FF800214FF48040FFF79AF832E0F648E0
:101D7000844209D101214804FFF79FF800214FF464
:101D80000030FFF79AF825E0F048844209D101219C
:101D90008804FFF792F800214FF48020FFF78DF8B8
:101DA00018E0EB48844209D10121C804FFF785F807
:101DB00000214FF40020FFF780F80BE0E548844253
:101DC00008D101210805FFF778F800214FF48010B1
:101DD000FFF773F810BD2DE9F04786B005460E46B3
:101DE0000024A24600BFA1460027B08900B100BF71
:101DF0002F462C8A4CF6FF700440F08804432C8256
:101E0000AC894EF6F3100440B088318908437189DB
:101E100008430443AC81AC8A4FF6FF400440B089CC
:101E20000443AC8201A8FEF7B4FFC648874202D142
:101E3000DDF810A001E0DDF80CA0A88900F4004056
:101E400040B10AEBCA0000EB0A1031684900B0FB50
:101E5000F1F807E00AEBCA0000EB0A1031688900CC
:101E6000B0FBF1F86420B8FBF0F004012009642114
:101E700001FB1089A88900F4004040B1322000EB3A
:101E8000C900B0FBF1F000F00700044308E0322085
:101E900000EB09106421B0FBF1F000F00F000443E7
:101EA0002C8106B0BDE8F0874FF416510160002187
:101EB0008180C18001810C21418100218181704795
:101EC00010B502460020108A4FF2FF0318400B881D
:101ED0004C8823438C882343CC88234318431082A7
:101EE00010BD0021018041808180C180704721B1F7
:101EF000828942F40052828104E082894DF6FF73A8
:101F00001A4082817047F0B5034600240026002560
:101F1000002040F66A17B94200D100BF1846C1F34D
:101F2000421401F01F06012707FA06F5012C01D122
:101F30000C3004E0022C01D1103000E014301AB152
:101F400007682F43076002E00768AF430760F0BDF2
:101F50001AB1838A0B43838202E0838A8B43838294
:101F60007047028A4FF6F0731A400282028A0A43CF
:101F70000282704782894FF2FF731A408281828900
:101F80000A438281704721B1828942F00202828134
:101F900004E082894FF6FD731A4082817047028AFD
:101FA0004FF6DF731A400282028A0A4302827047A8
:101FB00021B1028A42F48042028204E0028A4BF696
:101FC000FF731A4002827047C1F308028280704793
:101FD00001468888C0F308007047818941F00101FB
:101FE00081817047028BD2B20283028B42EA0122C6
:101FF00002837047028B02F47F420283028B0A4302
:102000000283704721B1828A42F02002828204E07A
:10201000828A4FF6DF731A408282704721B1828A2A
:1020200042F01002828204E0828A4FF6EF731A4077
:102030008282704721B1828A42F00802828204E0E3
:10204000828A4FF6F7731A408282704721B18289E3
:1020500042F40042828103E08289C2F30E0282814F
:10206000704721B1828A42F40062828204E0828A4F
:102070004FF2FF731A4082827047828A4FF6FB73D9
:102080001A408282828A0A438282704721B1828A00
:1020900042F00202828204E0828A4FF6FD731A4007
:1020A0008282704702460020B1F5007F00D100BF58
:1020B00013880B400BB1012000E00020704701F4B1
:1020C0000072B2F5007F00D100BFCA4302807047A2
:1020D00070B50246002400230025002040F66A1651
:1020E000B14200D100BFC1F3421501F01F03012628
:1020F00006FA03F3012D02D19689334006E0022D42
:1021000002D1168A334001E0968A33400C12012630
:1021100006FA04F41688344013B10CB1012000E033
:10212000002070BD10B50022002340F66A14A142C1
:1021300000D100BF0A1201249440A3B2DC43048002
:1021400010BD00000038014000440040004800403D
:10215000004C00400050004010B54FF4A060FEF766
:10216000D1F9FEF765F900F00FF841F2BF2142F214
:102170000F7000F037F84FF4165000F077F800F0C9
:10218000A7F800F091F910BD08B50121C020FEF7B5
:102190006DFE40F2FF70ADF8000010208DF80300D6
:1021A00003208DF8020069460C48FEF7A3FB40F2BD
:1021B000FF710A48FEF74BFC4020ADF800001020EC
:1021C0008DF8030003208DF8020069460448FEF7ED
:1021D00091FB40210248FEF73AFC08BD001C01407B
:1021E000001801407FB505460C4601210846FEF760
:1021F0004AFEADF80850ADF804400020ADF80A00E2
:10220000ADF8060001A94FF08040FEF767FF1C20E3
:102210008DF8000000208DF801008DF802000120EB
:102220008DF803006846FEF772F901218807FFF771
:102230008BFD012211469007FFF7C7FA012188079D
:10224000FFF7A8FA7FBD10B501218807FFF76BFDE6
:1022500040B101218807FFF777FD03480068401C63
:102260000149086010BD00003800002010B586B09C
:10227000044601210820FEF706FE01218804FEF72E
:1022800002FE4FF40060ADF8140004208DF8170032
:1022900005A97548FEF72EFB01940020ADF8080053
:1022A000ADF80A00ADF80C00ADF810000420ADF850
:1022B0000E0001A96D48FFF78EFD01216B48FFF765
:1022C00016FE012240216948FFF742FE06B010BD0C
:1022D00000B58DB001210846FEF7BBFD6448FEF74E
:1022E0007FF96248001D019062480290002003902F
:1022F0001420049000200590802006900020079074
:102300000890202009904FF440500A9000200B9034
:1023100001A95748FEF706FA012202215448FEF7A8
:1023200038FA01215248FEF728FA0D208DF83000C6
:1023300001208DF8310000208DF8320001208DF849
:1023400033000CA8FEF7E3F80DB000BD0021022019
:1023500004E0494A125C0A4491B2401C0728F8DDA7
:102360004548007A0840A8B143488078424AD2786C
:1023700000EB02200A2290FBF2F0404A10803E4817
:1023800000793D4A527900EB02200A2290FBF2F0DC
:102390003B4A1080704770B54FF40070FEF727FA83
:1023A000002860D04FF40070FEF716FA4FF400706A
:1023B000FEF731FA2F480078AA280FD12D4840782F
:1023C000C0280BD1002304E02A48C05C2A49C85425
:1023D0005B1C0A2BF8DBFFF7B9FF3CE02948407A89
:1023E000AA2805D123480078AA2801D109250EE0A2
:1023F00000240AE02348005DAA2805D12149601C79
:10240000085CAA2800D12546641C0A2CF2DB0023B4
:1024100005E058191B49085C1749C8545B1CC5F1F5
:102420000A009842F5DC002607E01248815D06F1BB
:102430000A00401B104A1154761CAE42F5DB002303
:1024400004E00C48C05C0F49C8545B1C0A2BF8DB45
:10245000FFF77CFF00BF0C48006808B9012000E0CE
:1024600000200949086070BD000C01400048004090
:1024700030000240C0000020D4000020A80000204E
:10248000AA000020CA0000209881234200BF7047A4
:1024900000BF3C4A128802F04002002AF9D0C2B2C2
:1024A000384B1B1D1A80704700B591B001210420E4
:1024B000FEF7DCFC01214804FEF7E5FC012108469B
:1024C000FEF7C7FC10A8FEF7A0FA0420ADF8400004
:1024D00018208DF8430010A92B48FEF70BFA0820AE
:1024E000ADF8400004208DF8430010A92648FEF7FF
:1024F00001FA2448FFF72CFC0CA8FFF7D5FC4FF499
:1025000016500C900020ADF83400ADF83600ADF850
:1025100038000C20ADF83A000020ADF83C000CA9C2
:102520001848FFF758FC01211648FFF7E0FC01228C
:1025300040211448FFF70CFD1448FEF751F81148EC
:10254000001D019012480290002003904FF480601B
:1025500004900020059080200690002007900890AD
:10256000202009904FF440500A9000200B9001A9C0
:102570000648FEF7D7F801210448FEF7FEF811B02F
:1025800000BD000000440040000801406C00024013
:10259000DE00002008B501210820FEF767FCC020FE
:1025A000ADF8000014208DF8030003208DF8020020
:1025B00069469048FEF79EF9C0218E48FEF747FA1B
:1025C00008BD10B58B48006820F07040894908604C
:1025D0000846006840F040500860012086490860C5
:1025E0008649C1F898010420FDF73BFF002082498D
:1025F00008600420FDF735FF00208049C1F89801EC
:1026000010BD10B57B48006820F070407949086023
:102610000846006840F04050086000207649091FD5
:1026200008607649C1F89C010420FDF71AFF0120DB
:102630007149091F08607149C1F89C010420FDF728
:1026400010FF10BD10B500246A48006820F07040EB
:10265000684908600846006840F0004008600120B2
:1026600065490860FDF7FDFE01206449C1F8980145
:10267000FDF7F7FE07E0601CC4B2FA2C03DDFFF79C
:10268000C0FF012010BD5C48803800680028F2D1EE
:102690005949091F086000BFF4E710B500205649EA
:1026A000091F08605348006820F0704051490860D5
:1026B0000846006840F04050086000204F49C1F8CB
:1026C0009C010220FDF7CDFE01204B49091F086047
:1026D0000220FDF7C6FE00204849C1F8980110BD50
:1026E00010B500204449091F08604248006820F0E6
:1026F0007040404908600846006840F0405008605B
:1027000001203E49C1F89C010220FDF7AAFE0120EC
:102710003949091F08600220FDF7A3FE0020374950
:10272000C1F8980110BD70B504463248006820F029
:102730007040304908600846006840F0405008602A
:1027400000202D49091F086000251DE0E00918B18F
:1027500001202949086002E000202749086060063E
:10276000040E0220FDF77DFE01202349091F0860A9
:102770000220FDF776FE00202049C1F898010220D2
:10278000FDF76FFE681CC5B2082DDFDB70BD70B5AC
:10279000054600241748006820F07040154908607D
:1027A0000846006840F000400860002617E000205E
:1027B0001149091F08600220FDF753FE01200F494F
:1027C000C1F898016006040E0B488038006808B113
:1027D000601CC4B20120FDF744FE701CC6B2082E76
:1027E000E5DB15B9FFF77CFF01E0FFF756FF204658
:1027F00070BD0000000C01409C81214200802142FC
:1028000008B501210420FEF731FB3020ADF80000AF
:1028100010208DF8030003208DF8020069469148CE
:10282000FEF768F830218F48FEF711F900208E4935
:10283000086008BD10B58B48006820F47000894915
:1028400008600846006840F440100860012087498D
:1028500008608749C1F890010420FDF702FE0020BE
:10286000824908600420FDF7FCFD00208049C1F882
:10287000900110BD10B57B48006820F470007949C4
:1028800008600846006840F440100860002077495E
:10289000091F08607649C1F894010420FDF7E1FDA5
:1028A00001207249091F08607149C1F89401042090
:1028B000FDF7D7FD10BD10B500246A48006820F46C
:1028C0007000684908600846006840F4000008602D
:1028D000012066490860FDF7C4FD01206449C1F884
:1028E0009001FDF7BEFD07E0601CC4B2FA2C03DDC9
:1028F000FFF7C0FF012010BD5C4880380068002849
:10290000F2D15A49091F086000BFF4E710B5002052
:102910005649091F08605348006820F47000514967
:1029200008600846006840F44010086000205049E4
:10293000C1F894010220FDF794FD01204B49091FC5
:1029400008600220FDF78DFD00204949C1F8900183
:1029500010BD10B500204549091F086041480068B6
:1029600020F470003F4908600846006840F44010B9
:10297000086001203E49C1F894010220FDF771FD75
:1029800001203A49091F08600220FDF76AFD002076
:102990003749C1F8900110BD70B504463148006850
:1029A00020F470002F4908600846006840F4401089
:1029B000086000202D49091F086000251DE0E0097E
:1029C00018B101202949086002E000202749086069
:1029D0006006040E0220FDF744FD01202349091F73
:1029E00008600220FDF73DFD00202149C1F890015B
:1029F0000220FDF736FD681CC5B2082DDFDB70BD77
:102A000070B5054600241748006820F47000154989
:102A100008600846006840F400000860002617E0DF
:102A200000201249091F08600220FDF71AFD01204D
:102A30000F49C1F890016006040E0C488038006808
:102A400008B1601CC4B20120FDF70BFD701CC6B2BA
:102A5000082EE5DB15B9FFF77CFF01E0FFF756FF15
:102A6000204670BD00080140980123429401214294
:102A70000000214210B5FFF78DFD4FF6FF720021D7
:102A80004FF4874001F002FB18B90020324908607A
:102A900002E00220314908600120FDF706FD4FF6F3
:102AA000FF7200214FF4874001F00FFB20B9002096
:102AB0002949091D086002E0022028490860012018
:102AC000FDF7F3FCFFF79CFE002404E04FF47A705E
:102AD000FDF7EBFC641C142CF8DB00F0BDF820487B
:102AE000007868B900F0FAFD4FF47A70FDF7DDFC6C
:102AF0004FF47A70FDF7D9FC00F013F9184908700B
:102B00004FF47A70FDF7D1FC15480078022805D102
:102B100014A002F02FF913A002F02CF94FF47A70F0
:102B2000FDF7C3FC4FF47A70FDF7BFFC8321124818
:102B300002F082FA4FF48061104802F07DFA002022
:102B40000F490860002404E04FF47A70FDF7ADFCF3
:102B5000641C0A2CF8DB10BD9C8123420400002079
:102B60003C00002041542B4D49504C434C4F5345A1
:102B70003D300D0A00000000E0060020DE000020CD
:102B8000380000202DE9F04705460E4614469946C8
:102B90000027B8462946FCA002F0ECF84FF4FA7082
:102BA000FDF783FCF948D0F8008014E03146F8487E
:102BB00002F0D7F908B100270EE02946F2A002F092
:102BC000D9F8A0B2FDF771FCF0480068A0EB08004E
:102BD0000A2800D900E0E9E700BFA0B2FDF765FCD4
:102BE0003846BDE8F0872DE9F04705460F46164602
:102BF0001C46DDF820A04FF00008C1462946E2A09F
:102C000002F0B8F86420FDF750FCE048D0F80090DE
:102C10001AE03946DE4802F0A4F920B93146DC4812
:102C200002F09FF910B14FF000080EE02946D6A03F
:102C300002F0A0F8A0B2FDF738FCD4480068A0EB81
:102C400009000A2800D900E0E3E700BFA0B2FDF7C1
:102C50002CFC4046BDE8F08710B501234FF47A7292
:102C6000CCA1CFA0FFF78EFF01234FF47A72CFA142
:102C7000CFA0FFF787FF01234FF47A72CBA1D0A03A
:102C8000FFF780FF01234FF47A72D0A1D2A0FFF7A3
:102C900079FF10BD704710B504464FF40071D1485C
:102CA00002F0ECF9D0A1CF4802F06DF92146CD48F1
:102CB00002F069F9D1A1CB4802F065F9D0A1C94869
:102CC00002F061F9D1A1C74802F05DF901234FF488
:102CD0007A72B6A1C348FFF755FF10BD10B5044680
:102CE0004FF40071BF4802F0C9F9BFA1BD4802F01E
:102CF0004AF92146BB4802F046F9C0A1B94802F0A2
:102D000042F9C3A1B74802F03EF9C0A1B54802F0AC
:102D10003AF901234FF47A72A4A1B248FFF732FFC7
:102D200010BD2DE9F04101234FF47A729FA1BFA09D
:102D3000FFF728FF01234FF47A729CA1BFA0FFF791
:102D400021FF01234FF47A7298A1C5A0FFF71AFF63
:102D500001234FF47A7295A1CAA0FFF713FF012354
:102D60004FF47A7291A1D0A0FFF70CFF01234FF42A
:102D70007A728EA1D5A0FFF705FF002540F6F34734
:102D800000240026DAA001F0F5FF80480668BDE2C5
:102D9000DDA17F4802F0E5F8E049086008460068D8
:102DA00000287DD0012D00D1B1E24FF47A70FDF7FB
:102DB0007CFB4FF47A70FDF778FB4FF47A70FDF7E7
:102DC00074FB21E0D6A1724802F0CBF8D749086025
:102DD00008460068C0B1002400E0641CD3480068C5
:102DE0000938005D2C28F8D1D048036800680938FC
:102DF0002044181A821ECD48006809382044411C1E
:102E0000CB4802F0CCF800E0DCE700BF22E0C9A12B
:102E10005F4802F0A6F8C549486008464068C8B156
:102E2000002400E0641CC14840680938005D2C287B
:102E3000F8D1BE484368406809382044181A821EF9
:102E4000BA48406809382044411CB948083002F0AB
:102E5000A6F800E0DBE700BF23E0B9A14C4802F090
:102E600080F8B249C8600846C068D0B1002400E0CC
:102E7000641CAE48C0680938005D2C28F8D1AB4806
:102E8000C368C06809382044181A821EA748C06861
:102E900009382044411CA648183002F080F801E0AF
:102EA00026E2DAE700BF22E0A8A1394802F059F88B
:102EB0009E49086108460069C8B1002400E0641C0E
:102EC0009A4800690938005D2C28F8D197480369B1
:102ED000006909382044181A821E9448006909388C
:102EE0002044411C9248203002F059F800E0DBE712
:102EF00000BF22E098A1264802F033F88B494861D0
:102F000008464069C8B1002400E0641C8748406955
:102F10000938005D2C28F8D1844843694069093894
:102F20002044181A821E8148406909382044411CF7
:102F30007F48283002F033F800E0DBE700BF17E1FC
:102F400088A1134802F00DF8784988610846806925
:102F5000C8B1002400E0641C744880690938005D31
:102F60002C28F8D171488369806909382044181ADF
:102F7000821E6E48806909382044411C6C483030FC
:102F800002F00DF8F5E0F3E02573000038000020B2
:102F9000DE0000202B43474154543A31000000002A
:102FA00041542B43474154543F0D0A004F4B0000FE
:102FB00041542B43455245473D310D0A0000000066
:102FC00041542B434D45453D310D0A002B4345529D
:102FD00045473A312C31000041542B434552454777
:102FE0003F0D0A00E004002041542B4D49504C4451
:102FF0004953434F5645525253503D302C00000028
:10300000312C342C22353730302200000D0A0000DC
:10301000312C31392C22353730303B353730303B8D
:10302000353730303B3537303022000041542B4D9E
:1030300049504C4352454154450D0A0041542B4DD3
:1030400049504C4144444F424A3D302C3333303395
:103050002C312C2231222C312C310D0A00000000A1
:1030600041542B4D49504C4144444F424A3D302C31
:10307000333330342C312C2231222C312C310D0AB7
:103080000000000041542B4D49504C4144444F42F4
:103090004A3D302C333331352C342C22313131310F
:1030A000222C312C310D0A0041542B4D49504C41FA
:1030B00044444F424A3D302C333331362C342C2299
:1030C00031313131222C312C310D0A0041542B4D3C
:1030D00049504C4144444F424A3D302C3333323303
:1030E0002C312C2231222C312C310D0A0000000011
:1030F00041542B4D49504C4F50454E3D302C3936A4
:1031000030302C36300D0A002B4D49504C4F425375
:10311000455256453A20302C00000000480000205F
:10312000312C333330332C3000000000780700207E
:103130000B070020312C333330342C3000000000DA
:10314000312C333331352C3000000000312C333337
:1031500031352C3100000000312C333331352C3225
:1031600000000000312C333331352C3300000000D7
:10317000E6E600BF21E0F9A1FB4801F0F2FEFB49C1
:10318000C8610846C069C0B1002400E0641CF7486B
:10319000C0690938005D2C28F8D1F448C369C069BA
:1031A00009382044181A821EF048C06909382044A2
:1031B000411CEF4801F0F3FE00E0DCE700BF22E035
:1031C000ECA1E94801F0CDFEE84908620846006A32
:1031D000C8B1002400E0641CE448006A0938005DBE
:1031E0002C28F8D1E148036A006A09382044181AEB
:1031F000821EDE48006A09382044411CDC48083041
:1032000001F0CDFE00E0DBE700BF22E0DCA1D64804
:1032100001F0A7FED54948620846406AC8B10024BB
:1032200000E0641CD148406A0938005D2C28F8D1C0
:10323000CE48436A406A09382044181A821ECB4897
:10324000406A09382044411CC948103001F0A7FEEB
:1032500000E0DBE700BF22E0CCA1C34801F081FE23
:10326000C24988620846806AC8B1002400E0641C34
:10327000BE48806A0938005D2C28F8D1BB48836AB3
:10328000806A09382044181A821EB848806A0938B2
:103290002044411CB648183001F081FE00E0DBE715
:1032A00000BF22E0BCA1B04801F05BFEAF498860DE
:1032B00008468068C8B1002400E0641CAB48806800
:1032C0000938005D2C28F8D1A8488368806809383F
:1032D0002044181A821EA548806809382044411CE1
:1032E000A348283801F05BFE00E0DBE700BF0125C2
:1032F000012D00D10BE0AB480068801B1E2802D9CD
:103300000026002503E06420FDF7CFF840E500BF6C
:1033100096488068944A801A00F10F010122924871
:1033200001F082FE9F48066811E19FA18E4801F0DE
:1033300018FEA24908600846006800286FD0022DD8
:1033400000D107E140F6F341781A8F420BD005DC3B
:10335000A7F6E74078B301287ED18FE0012830D06E
:103360000828F9D1B7E027E095A17F4801F0F9FDE1
:103370009549086008460068F0B1002400E0641C2C
:10338000914800680938005D2C28F8D18E48036800
:10339000006809382044401C1A1A8B480068093814
:1033A0002044411C7248483801F0F9FD7048483803
:1033B000FFF794FC01E031E0D6E700BF40F6F447A8
:1033C000B6E026E081A1684801F0CBFD7E49486067
:1033D00008464068E8B1002400E0641C7A48406870
:1033E0000938005D2C28F8D17748436840680938CF
:1033F0002044401C1A1A7448406809382044411C73
:103400005B48403801F0CBFD59484038FFF766FC77
:1034100000E0D7E700BF40F6E74789E029E088E011
:103420006CA1514801F09DFD67498860084680689D
:10343000F8B1002400E0641C634880680938005D2E
:103440002C28F8D160488368806809382044401CE3
:103450001A1A5D48806800E069E009382044411C80
:103460004348603801F09BFD41486038FFF713FC8A
:1034700000E0D5E700BF40F6E84759E026E057A155
:10348000394801F06EFD5049C8600846C068E8B18F
:10349000002400E0641C4C48C0680938005D2C28FA
:1034A000F8D14948C368C06809382044401C1A1A3A
:1034B0004548C06809382044411C2D48583801F05F
:1034C0006EFD2B485838FFF7E6FB00E0D7E700BF5A
:1034D00040F6FB472CE026E042A1234801F041FDE5
:1034E0003949086108460069E8B1002400E0641C1D
:1034F000354800690938005D2C28F8D13248036945
:10350000006909382044401C1A1A2F4800690938FC
:103510002044411C1648503801F041FD14485038F1
:10352000FFF7B9FB00E0D7E700BF022500E000BFCE
:1035300000BF022D00D10DE01A480068801B1E2834
:1035400002D90026002505E06420FCF7AEFF012D1E
:103550003FF4EBAE00BFE8B2BDE8F081312C33336D
:1035600031362C3000000000DE00002078070020FB
:1035700043070020312C333331362C31000000005A
:10358000312C333331362C3200000000312C3333F0
:1035900031362C3300000000312C333332332C30E1
:1035A00000000000380000202B4D49504C44495386
:1035B000434F5645523A20302C0000004400002072
:1035C0002C33333135000000640700202C333331B5
:1035D000360000002C333330330000002C333330FE
:1035E000340000002C333332330000002DE9F04763
:1035F00004460F4615461E46DDF820804FF00009B0
:103600004FF40071F74801F039FDF7A1F54801F0DA
:10361000BAFC2146F34801F0B6FCAFF26401F14870
:1036200001F0B1FC3946EF4801F0ADFCAFF2780192
:10363000EC4801F0A8FC2946EA4801F0A4FCAFF2EE
:103640008801E84801F09FFCECA1304601F03EFD06
:1036500018B9ECA1E34801F096FC4146E14801F0BD
:1036600092FCEBA1DF4801F08EFCAFF26061DD4817
:1036700001F089FC01229102E74801F0D5FCD9490B
:10368000AFF2FC6001F076FB4FF4FA70FCF70DFF2F
:10369000E248D0F8009019E0AFF2F061DE4801F0A6
:1036A00060FC00B113E0CF49AFF2247001F062FB7F
:1036B0004FF47A70FCF7F9FED8480068A0EB0900D7
:1036C000052803D90120D649086000E0E4E700BFDF
:1036D0004FF47A70FCF7E9FEBDE8F08708B50120E9
:1036E0004FF47A73CFA2AFF23C710090CFA0FFF7F6
:1036F0007AFA01204FF47A73CAA2AFF250710090A7
:10370000CFA0FFF770FA01204FF47A73C5A2AFF291
:1037100064710090D0A0FFF766FA01204FF47A732D
:10372000C0A2AFF278710090D1A0FFF75CFA01203F
:103730004FF47A73BBA2AFF28C710090D2A0FFF766
:1037400052FA01204FF47A73B6A2AFF2A071009042
:10375000D3A0FFF748FA01204FF47A73B1A2AFF279
:10376000B4710090D4A0FFF73EFA08BD2DE9F041F6
:10377000002540F6F34700240026AFF28C6001F0EC
:10378000F9FAA648066850E2AFF28461A24801F057
:10379000E8FBCE4908600846006800287ED0012D6D
:1037A00000D143E24FF47A70FCF77FFE4FF47A7059
:1037B000FCF77BFE4FF47A70FCF777FE22E0AFF265
:1037C000A061954801F0CDFBC1490860084600683A
:1037D000C0B1002400E0641CBD4800680C38005DE6
:1037E0002C28F8D1BA48036800680C382044181A0D
:1037F000821EB74800680C382044411CB54801F0CF
:10380000CEFB00E0DBE700BF23E0AFF2D8618248E7
:1038100001F0A7FBAE49486008464068C8B10024E3
:1038200000E0641CAA4840680C38005D2C28F8D1E0
:10383000A748436840680C382044181A821EA448E0
:1038400040680C382044411CA248083001F0A7FB16
:1038500000E0DAE700BF25E0AFF21C716E4801F02E
:1038600080FB9B49C8600846C068D8B1002400E0CE
:10387000641C9748C0680C38005D2C28F8D1944827
:10388000C368C0680C382044181A821E9048C0686B
:103890000C382044411C8F48183000E0B7E101F09B
:1038A0007EFB00E0D8E700BF23E0AFF260715A482A
:1038B00001F057FB8649086108460069C8B1002439
:1038C00000E0641C824800690C38005D2C28F8D1A7
:1038D0007F48036900690C382044181A821E7C480E
:1038E00000690C382044411C7A48203001F057FB15
:1038F00000E0DAE700BF23E0AFF2A471464801F030
:1039000030FB7349486108464069C8B1002400E0B3
:10391000641C6F4840690C38005D2C28F8D16C4855
:10392000436940690C382044181A821E684840696F
:103930000C382044411C6748283001F030FB00E07F
:10394000DAE700BF23E0AFF2E471334801F009FB8E
:103950005F49886108468069C8B1002400E0641CA2
:103960005B4880690C38005D2C28F8D15848836981
:1039700080690C382044181A821E554880690C381A
:103980002044411C5348303001F009FB00E0DAE7E5
:1039900000BF23E0AFF23C411F4801F0E2FA4C497E
:1039A000C8610846C069C8B1002400E0641C4848EA
:1039B000C0690C38005D2C28F8D14548C369C0693E
:1039C0000C382044181A821E4148C0690C38204423
:1039D000411C4048383001F0E2FA00E0DAE700BF6D
:1039E0009DE00000E004002041542B4D49504C4E16
:1039F0004F544946593D302C0000000035373030D7
:103A000000000000353730302C342C342C000000FE
:103A10002C302C3000000000DE0000203800002098
:103A2000400000204552524F5200000041542B4D9F
:103A300049504C434C4F53453D300D0A00000000A7
:103A400041542B4D49504C44454C4F424A3D302C3B
:103A5000333330330D0A000041542B4D49504C4450
:103A6000454C4F424A3D302C333330340D0A000070
:103A700041542B4D49504C44454C4F424A3D302C0B
:103A8000333332330D0A000041542B4D49504C441E
:103A9000454C4F424A3D302C333331350D0A00003E
:103AA00041542B4D49504C44454C4F424A3D302CDB
:103AB000333331360D0A000041542B4D49504C44EC
:103AC000454C4554453D300D0A0000005000002093
:103AD000B80700200B070020AFF26851E94801F059
:103AE00040FAE94908620846006AC0B1002400E0D3
:103AF000641CE548006A0C38005D2C28F8D1E248C7
:103B0000036A006A0C382044181A821EDE48006AD4
:103B10000C382044411CDD4801F041FA00E0DBE7AD
:103B200000BF23E0AFF2A851D64801F01AFAD649F7
:103B300048620846406AC8B1002400E0641CD248CC
:103B4000406A0C38005D2C28F8D1CF48436A406A9F
:103B50000C382044181A821ECB48406A0C38204486
:103B6000411CCA48083001F01AFA00E0DAE700BF49
:103B700023E0AFF2E851C34801F0F3F9C24988628B
:103B80000846806AC8B1002400E0641CBE48806A10
:103B90000C38005D2C28F8D1BB48836A806A0C3849
:103BA0002044181A821EB848806A0C382044411CF0
:103BB000B648103001F0F3F900E0DAE700BF23E087
:103BC000AFF22C61AF4801F0CCF9AF4988600846EC
:103BD0008068C8B1002400E0641CAB4880680C38E1
:103BE000005D2C28F8D1A848836880680C382044F0
:103BF000181A821EA44880680C382044411CA3482F
:103C0000303801F0CCF900E0DAE700BF0125012DE2
:103C100000D10BE09E480068801B1E2802D90026B8
:103C2000002503E06420FCF740FCADE500BF9648AA
:103C30008068944A801A00F10F010122914801F036
:103C4000F3F99348066816E1AFF2A4618D4801F0DC
:103C500088F99049086008460068002870D0022D55
:103C600000D10BE140F6F341781A8F420BD005DC0E
:103C7000A7F6E74080B3012870D191E0012831D048
:103C80000828F9D1BAE028E0AFF2CC617D4801F014
:103C900068F98149086008460068F0B1002400E036
:103CA000641C7D4800680938005D2C28F8D17A48EA
:103CB0000368006809382044401C1A1A76480068D6
:103CC00009382044411C7148503801F068F96F48A8
:103CD0005038FFF703F801E033E0D5E700BF40F6C6
:103CE000F447B9E027E0AFF21C71664801F039F9FA
:103CF0006949486008464068E8B1002400E0641C57
:103D0000654840680938005D2C28F8D1624843684E
:103D1000406809382044401C1A1A5F484068093836
:103D20002044411C5948483801F039F9574848386F
:103D3000FEF7D4FF00E0D6E700BF40F6E7478BE090
:103D40008BE028E0AFF274714E4801F00AF9524955
:103D5000886008468068F0B1002401E07BE0641CC4
:103D60004D4880680938005D2C28F8D14A4883689E
:103D7000806809382044401C1A1A4748806809386E
:103D80002044411C4148683801F009F93F4868382F
:103D9000FEF781FF00E0D5E700BF40F6E8475BE0B3
:103DA00027E0AFF2C871374801F0DBF83A49C86044
:103DB0000846C068E8B1002400E0641C3648C068CA
:103DC0000938005D2C28F8D13348C368C068093829
:103DD0002044401C1A1A3048C06809382044411C4D
:103DE0002A48603801F0DBF828486038FEF753FFB6
:103DF00000E0D6E700BF40F6FB472DE027E0AFF636
:103E00001C01204801F0ADF823490861084600690B
:103E1000E8B1002400E0641C1F4800690938005D17
:103E20002C28F8D11C480369006909382044401C3B
:103E30001A1A1948006909382044411C1348583897
:103E400001F0ADF811485838FEF725FF00E0D6E73D
:103E500000BF022500E000BF00BF022D00D10DE031
:103E60000B480068801B142802D90026002505E0B5
:103E70006420FCF71AFB012D3FF4E6AE00BFE8B268
:103E8000BDE8F081DE000020B80700204B070020CD
:103E9000380000204C000020A407002070B5044624
:103EA0000D460026FEF78DFB902141EA4401C8B281
:103EB000FEF739FCFEF7C6FB2846FEF734FCFEF79A
:103EC000C1FBFEF77EFB912141EA4401C8B2FEF737
:103ED0002AFCFEF7B7FB0120FEF759FC0602012081
:103EE000FEF755FC0643FEF78CFB0320FCF7B9FAFE
:103EF000304670BD70B506460C461546FEF761FBB0
:103F0000902141EA4601C8B2FEF70DFCFEF79AFB8C
:103F10002046FEF708FCFEF795FB2812FEF703FC8F
:103F2000FEF790FBE8B2FEF7FEFBFEF78BFBFEF719
:103F300068FB0320FCF795FA70BD38B505460C46C2
:103F40007149681A8D4223D009DC7048284480B139
:103F5000B0F5806F12D0B0F5006F2DD113E0B0F541
:103F6000806F1AD0B0F5006F1CD0B0F5406F23D130
:103F70001DE001210420FCF779FF1EE0012108204B
:103F8000FCF774FF19E001211020FCF76FFF14E02B
:103F900001212020FCF76AFF0FE001214020FCF7FF
:103FA00065FF0AE001218020FCF760FF05E00121A8
:103FB0000802FCF75BFF00E000BF00BFADF8004067
:103FC00004208DF8030069462846FCF793FC38BDB1
:103FD0002DE9F04707460C4616461D46DDE90889DF
:103FE0004FF0020AFEF7D6FA49464046FFF7A5FF12
:103FF00000213846FFF752FFB0B901213846FFF7DC
:104000004DFF48F2835188420ED102213846FFF716
:1040100045FFB0F5004F07D103213846FFF73EFFBB
:1040200047F6FF71884202D00120BDE8F08700BF4B
:10403000224601213846FFF75DFF3246022138460D
:10404000FFF758FF2A4603213846FFF753FF0121A7
:104050003846FFF723FF44F4004188420DD1022186
:104060003846FFF71BFFB04207D103213846FFF760
:1040700015FFA84201D10020D7E75FEA0A00AAF1A4
:10408000010101F0FF0AD3D10120CEE77CB504463F
:104090000D46164608201E4933462A46CDE9001033
:1040A00021460120FFF794FF7CBD10B50446214650
:1040B0000120FFF7F3FE10BD70B504460D462A46F9
:1040C00021460120FFF716FF70BD7CB504460D4662
:1040D000164610200E4933462A46CDE900102146E7
:1040E0000020FFF775FF7CBD10B504462146002077
:1040F000FFF7D4FE10BD70B504460D462A46214692
:104100000020FFF7F7FE70BD0014014000F8FEBF6D
:104110000010014070B505460C46FEF78BFB882069
:10412000FEF73AFCFEF7C7FB2846FEF735FCFEF724
:10413000C2FB2046FEF730FCFEF7BDFBFEF79AFB04
:104140000520FCF7B2F970BD70B504460D4600BFFE
:1041500032212020FFF7DEFFC820FCF7A6F9FEF78A
:1041600069FB8920FEF718FCFEF7A5FB0646012037
:10417000FEF746FC1F4908700120FEF741FC1D496F
:1041800048700120FEF73CFC0120FEF739FC1A497B
:1041900008700120FEF734FC17494870FEF76AFBEF
:1041A0000520FCF782F913484178007801EB0020E4
:1041B000AF2148434FF6FF71B0FBF1F02D3820706E
:1041C0000D484178007801EB0020642148434FF608
:1041D000FF71B0FBF1F02870012E02D10020207099
:1041E000287000200349087048700349087048701F
:1041F00070BD00005400002056000020FE4800BFA3
:104200000100A0F10100FBD170472DE9F041074604
:104210000D461646FEF70EFBEE20FEF7BDFBFEF741
:104220004AFB3846FEF7B8FBFEF745FBFEF702FBFC
:10423000EF20FEF7B1FBFEF73EFBF04908600024DB
:104240000DE0701EA04204D10020FEF7D9FB2855D6
:1042500003E00120FEF7D4FB2855601CC4B2B44231
:10426000EFDBFEF707FBBDE8F08170B505460C46B5
:10427000FEF7E0FAEE20FEF78FFBFEF71CFB284668
:10428000FEF78AFBFEF717FB2046FEF785FBFEF7DD
:1042900012FBFEF7EFFA70BD08B502226946AA20AC
:1042A000FFF7B3FF9DF801009DF8001040EA0120E0
:1042B00000B2D349088002226946AC20FFF7A5FF6F
:1042C0009DF801009DF8001040EA012000B2CD49A0
:1042D000088002226946AE20FFF797FF9DF8010093
:1042E0009DF8001040EA012000B2C7490880022270
:1042F0006946B020FFF789FF9DF801009DF8001086
:1043000040EA0120C149088002226946B220FFF735
:104310007CFF9DF801009DF8001040EA0120BC4997
:10432000088002226946B420FFF76FFF9DF8010064
:104330009DF8001040EA0120B64908800222694633
:10434000B620FFF762FF9DF801009DF8001040EADB
:10435000012000B2B049088002226946B820FFF768
:1043600054FF9DF801009DF8001040EA012000B2C2
:10437000AA49088002226946BA20FFF746FF9DF845
:1043800001009DF8001040EA012000B2A449088015
:1043900002226946BC20FFF738FF9DF801009DF816
:1043A000001040EA012000B29E49088002226946BE
:1043B000BE20FFF72AFF9DF801009DF8001040EA9B
:1043C000012000B29849088008BD2DE9F04F8DB05A
:1043D0004FF00008FFF760FF2E21F420FFF745FFA4
:1043E000FFF70CFF022206A9F620FFF70EFF9DF84B
:1043F00019009DF8181040EA01200990342000EBC4
:104400008811F420FFF731FFFFF7F8FE032206A919
:10441000F620FFF7FAFE9DF8180000049DF8191029
:1044200000EB01209DF81A100844C8F1080108416A
:104430000A90784909880998401A754909884843BB
:10444000C4137848B0F90000C0027749B1F90010F0
:10445000214490FBF1F604EB060B0BF108006421FC
:10446000484300110890089802F0AAF903906F4899
:104470000168039802F004FA05906C4801684FF057
:104480007E5002F005FB039069480168039802F032
:10449000F7F90490059902F009F9654908600846A2
:1044A000006802F071F963490860ABF57A6707FBB1
:1044B00007F000135949B1F900104843C41251489C
:1044C000B0F900007843C61204EB060A4C49B1F972
:1044D00000100AEB810101FA08F1881CC11700EBFA
:1044E000917189100B914848B0F90000784344134A
:1044F00007FB07F000134849B1F9001048430614C0
:10450000A019801C4FEAA00A404800880AF5004123
:104510004843C00B0790DDE90A01401A4CF25031C4
:1045200041FA08F100FB01F9B9F1004F05D24FEA59
:1045300049010798B1FBF0F503E00798B9FBF0F0EB
:104540004500281200FB00F440F6DE3060430414FE
:10455000394868430614A01900F6CF6005EB201512
:10456000284602F02DF9029034480168029802F0C2
:1045700084FA039002F06EF821F000410022304BE3
:10458000CDE9040101F02CFF1AD2284602F018F9F7
:1045900000902A480168009802F06FFA019002F03A
:1045A00059F821F000410022264BCDE9020101F02B
:1045B000ABFDCDE9040101F069FD2349086002E08B
:1045C000224821490860284602F0FAF803901E4864
:1045D0000168039802F054F905901B4801684FF0F8
:1045E0007E5002F055FA039014480168039802F0D7
:1045F00047F9049005992BE0400D03007800002056
:10460000580000205A0000205C0000205E000020BE
:10461000600000206200002064000020660000208E
:10462000680000206A0000206C0000208800002044
:10463000840000207000002043E3FFFF7C00002086
:104640000000594000408F4080000020CDCCCC3D80
:1046500002F02CF80B4908600B490A48006802F088
:104660000FF9059002F090F80849086008480068C2
:10467000012801D100200860044800680DB0BDE8A1
:10468000F08F00007C0000200000C8427400002071
:10469000780000202DE9F0478CB0FE48006838B95A
:1046A000FD48006808B9012000E00020FA490860D0
:1046B000FA48006809287CD14FF0000AA9E0F848C0
:1046C00030F81A100120FFF716FD1021F548FCF70D
:1046D000A4F900286ED00020FFF706FDF24921F86A
:1046E0001A0031F81A0001F067FE8046EF4AF04BDD
:1046F00001F0B2FE06460022EE4B01F005FD044635
:1047000001F0C4FCEC4941F82A00BAF1000F2BD1AA
:10471000E1482438006808B9012000E00020DE49A3
:1047200024390860E4490868002102F075F918D2BC
:10473000E149086801F08EFF04460022DF4B01F0DA
:104740004FFE0ED2DC49086801F084FF0646DC4AC1
:10475000DC4B01F081FE044601F098FCDA49086068
:1047600002E00020D8490860BAF1010F2AD1CA48F6
:104770002038006808B9012000E00020C64920392F
:104780000860CD494868002102F046F91AD2CA49AA
:10479000486801F05FFF04460022C84B01F020FE8C
:1047A00010D2C549486801F055FF0646C74AC84BB4
:1047B00001E0A7E228E001F04FFE044601F066FCAC
:1047C000C4490860BAF1020F0DD1B3481838006827
:1047D00008B9012000E00020AF4918390860B64848
:1047E0008068BD490860BAF1030F0DD1AA4810389E
:1047F000006808B9012000E00020A74910390860CE
:10480000AD48C068B54908600A20FBF74EFE0AF1C2
:10481000010ABAF1040FFFF652AF4FF0040A4FE05D
:10482000AAF104009E4A32F810100120FFF744FC60
:1048300008219C48FCF7F1F898B30020FFF735FCFD
:10484000994921F81A0031F81A0001F0B5FD8046A7
:10485000964A974B01F000FE06460022954B01F068
:1048600053FC044601F012FC934941F82A00BAF1C6
:10487000050F0DD188481438006808B9012000E000
:1048800000208549143908608B48406994490860C4
:10489000BAF1060F0ED180481C38006810B901200B
:1048A00001E008E000207C491C39086082488069EA
:1048B0008C49086000BF0A20FBF7F7FD0AF1010AE6
:1048C000BAF1080FACDB88498848FFF73DFCFFF7D9
:1048D0007CFD874908608548007801F089FF85499B
:1048E00008608148007801F083FF82494860804871
:1048F000006801F07DFF7F4988607A480068C860E1
:104900007548006808617648006848617348006827
:1049100088617948008801F06BFF7649C861774863
:10492000008801F065FF73490862674800684862C3
:1049300068480068886200217148FDF7D8FA0021B4
:104940007048FBF71AFF4FF480616F4800F074FB6A
:104950006C48FBF745FE6A48001D01906A480290CA
:10496000002003904FF48060049000200590802088
:104970000690002007900890202009904FF44050A6
:104980000A9000200B9001A95E48FBF7CBFE0121A5
:104990005C48FBF7F2FE01215948FDF7A8FA4FF4F5
:1049A0007A70FBF782FD5948006820B9FEF7DEFEF9
:1049B000574908702AE055480068012826D1FEF7BB
:1049C0008DFE4FF47A70FBF770FD4FF47A70FBF7B1
:1049D0006CFDFEF7A6F94FF47A70FBF766FD4DA06B
:1049E00000F0C8F94BA000F0C5F94FF47A70FBF75E
:1049F0005CFD83214C4800F01FFB4FF47A70FBF7FD
:104A000054FD002041490860414908704FF47A7014
:104A1000FBF74BFD3E480078022839D1354908683C
:104A200001F018FE044622460B4640A1414800F022
:104A3000ADF9404840A342A242A100903A482B3031
:104A4000FEF7D4FD2B49486801F004FE04462246D7
:104A50000B4636A1374800F099F9364836A338A2FC
:104A60003AA1009030483330FEF7C0FD21498868F4
:104A700001F0F0FD044622460B462CA12D4800F023
:104A800085F92C482CA32EA232A10090264865E07F
:104A900031E1000004000020A48123420000002036
:104AA0007E6B000800100140E4070020FCA9F1D251
:104AB0004D6210400000E040F40700200000084074
:104AC000079964E42C6C0D40A0000020BF7D1D38C8
:104AD00067A464409C000020B0000020AC000020CF
:104AE000B8000020B40000209A00002099000020A7
:104AF000A400002014080020A8000020AA00002024
:104B0000004400406C000240DE0000204000002015
:104B10003C00002041542B4D49504C434C4F5345D1
:104B20003D300D0A00000000E006002025342E3143
:104B300066000000BC000020353730300000000067
:104B400030000000333330330000000033333034A2
:104B50000000000033333233000000003B30FEF72A
:104B600045FD6B49C86801F075FD044622460B46B9
:104B7000AFF24801674800F009F96648AFF2480310
:104B8000AFF2440264A100906548FEF72FFD604932
:104B9000086901F05FFD044622460B46AFF274013E
:104BA0005C4800F0F3F85B48AFF274035DA25AA1D1
:104BB00000905B480830FEF719FD5549486901F03F
:104BC00049FD044622460B46AFF2A001514800F0D1
:104BD000DDF85048AFF2A00353A24FA10090504817
:104BE0001030FEF703FD4A49886901F033FD0446A1
:104BF00022460B46AFF2CC01464800F0C7F84548C4
:104C0000AFF2CC0349A244A1009045481830FEF70A
:104C1000EDFC3F49C86901F01DFD044622460B46E4
:104C2000AFF2F8013B4800F0B1F83A48AFF2F803B0
:104C3000AFF2F4023EA1009039482030FEF7D6FCD6
:104C40003349086A01F006FD044622460B46AFF2DE
:104C50002411304800F09AF82E48AFF2241331A204
:104C600033A100902E482830FEF7C0FC2849486A3E
:104C700001F0F0FC044622460B46AFF250112548E5
:104C800000F084F82348AFF2501327A228A1009027
:104C900023483030FEF7AAFC1D49886A01F0DAFC8F
:104CA000044622460B46AFF27C111A4800F06EF81B
:104CB0001848AFF27C131DA21DA10090184838308F
:104CC000FEF794FC4FF47A70FBF7EFFB8321144856
:104CD000433800F0B1F94FF47A70FBF7E6FBAFF21E
:104CE000CC1000F047F8AFF2D41000F043F80020E9
:104CF0001149087007E01048007810B901200F49E9
:104D0000086000E000BF00BF0CB0BDE8F087000005
:104D100014080020BC0000203333313500000000AF
:104D200023070020310000003200000033000000A3
:104D300033333136000000003C00002040000020EA
:104D4000FDF70AFAFDF796FE0FE009200749086013
:104D5000FFF7A0FC00200649086000BF0448006877
:104D60003C28FBD3002002490860EEE70000002049
:104D7000380000200FB4044910B503AA029800F0CF
:104D800029FC10BC5DF814FB340000200FB41CB5E6
:104D9000074B06AA7B4469460090059800F0EBFBA0
:104DA0000020694600F0FAFB1CBC5DF814FB000013
:104DB0000508000070B5044685690068C10601D584
:104DC000302600E02026C00707D070BDD4E90121BD
:104DD00030469047206A401C20626D1EF6D570BD9B
:104DE00070B5044685690078C00707D170BDD4E965
:104DF000012120209047206A401C20626D1EF6D5BC
:104E000070BD70B50C460546012A05D0287880068D
:104E100000D5EA69002302E0012305E05B1C934210
:104E200002D2E05C0028F9D1A869E618C01AA8618E
:104E3000286A184428622846FFF7BCFF04E0D5E939
:104E4000012114F8010B9047B442F8D32846FFF72C
:104E5000C7FF70BD2DE9F0474FF0000A89460446B0
:104E6000C0F820A02046E1688847002876D0252891
:104E700006D0D4E901219047206A401C2062F1E766
:104E8000E168204600258847C4F81CA00646002794
:104E9000C4F818A02A2E09D0304601F0D9F838B34A
:104EA00004EB8708303EC8F8186019E059F8041B75
:104EB000204604EB87029161E1688847012F06468E
:104EC00018D1E069002820DA25F020051DE0D8F887
:104ED000180000EB800006EB40003038C8F81800DE
:104EE0002046E1688847064601F0B2F80028EED176
:104EF000012F0AD02E2E08D12046E16888477F1C5A
:104F00000646022F45F02005C4DBA069002803DA1D
:104F1000404245F00105A061E80701D025F01005E9
:104F2000B6B1A6F14100192802D8203645F4006533
:104F30004A463146204625604D46FBF733F958B1C5
:104F4000012806D0ED1D25F0070000F1080989E7CA
:104F500004E005F1040985E730468AE7206ABDE8E8
:104F6000F08730B505460B462A4613F8014B12F878
:104F7000010B08B1A042F8D01CB1002802D06D1C72
:104F8000F1E7284630BD421E12F8013F002BFBD14D
:104F900011F8013B002B02F8013BF9D17047032ABD
:104FA00040F2308010F0030C00F0158011F8013B46
:104FB000BCF1020F624498BF11F801CB00F8013B2D
:104FC00038BF11F8013BA2F1040298BF00F801CBF1
:104FD00038BF00F8013B11F0030300F00D83083ADD
:104FE000C0F0088051F8043B083A51F804CBA0E81F
:104FF0000810F5E7121D5CBF51F8043B40F8043B74
:10500000AFF30080D20724BF11F8013B11F801CBA8
:1050100048BF11F8012B24BF00F8013B00F801CB79
:1050200048BF00F8012B704702F0FF0343EA032258
:1050300042EA024200F002B84FF000020429C0F038
:10504000128010F0030C00F01B80CCF1040CBCF1BA
:10505000020F18BF00F8012BA8BF20F8022BA1EB0C
:105060000C0100F00DB85FEAC17C24BF00F8012BF1
:1050700000F8012B48BF00F8012B70474FF00002E9
:1050800000B5134694469646203922BFA0E80C503E
:10509000A0E80C50B1F12001BFF4F7AF090728BF19
:1050A000A0E80C5048BF0CC05DF804EB890028BF95
:1050B00040F8042B08BF704748BF20F8022B11F0BE
:1050C000804F18BF00F8012B704700004FF0013CE3
:1050D00050F8042B51F8043B9A4221D1A2EB0C0367
:1050E000934313EACC1317D150F8042B51F8043B27
:1050F0009A4215D1A2EB0C03934313EACC130BD1C4
:1051000050F8042B51F8043B9A4209D1A2EB0C034E
:10511000934313EACC13DBD04FF00000704700BF7D
:10512000D01A01BAB1FA81F101F0180122FA01F0A6
:10513000CB40C1F12001DBB2C0B2C01A2CFA01F39E
:10514000D11A914311EAC311E6D1704770477047F5
:10515000704770472DE9FF4F0C461E464FF0FF3752
:105160008BB0D2E90001DDF860800A908A46C1F375
:105170000A5505B93D46002108464FF00000BAF136
:10518000000F00F4400005DA00EB80004FF440010E
:1051900001EA50004FEA9059B9F1010F00DDB9461C
:1051A0000A9850EA4A000ED044F61050A5F2FF3596
:1051B00045432F14B8F1000F1ED07542291E1EDD85
:1051C000C9F100021CE0B8F1010F4FF0000001D05E
:1051D000302103E0F24305E02154401CB042FBDBE8
:1051E00030460022002121540B99C1F80880C1E902
:1051F00000200FB0BDE8F08FBD1B6D1CDEE74A46F6
:1052000000DA694206A800F0B7FA06AB93E8070097
:1052100003AB83E8070050460A9900F04AFB8DE88B
:105220000700A0F500501F3800900398002D09DDFD
:1052300042F21F014A46084403A90390684600F061
:10524000A9FD08E0A0F500504A461F3803A90390C5
:10525000684600F0B3FD8DE807000004000C03D0A1
:105260004FF0FF30410800E01046B8F1000F03D0C6
:105270000022009215461EE0751E05D400F0F6F9D6
:10528000303262556D1EF9D5B3460122084302D073
:1052900000227F1C04E02078302801D100227F1EEC
:1052A000002A099786D01DE0112D07DA00F0DEF9FB
:1052B000303262556D1C50EA0102F5D1084302D02C
:1052C0000098C8B10EE00021681E05E0235C625C16
:1052D00063542254401E491C8142F7DBAB46A81B95
:1052E000401E0990002004F80B000B98099AC0F8A2
:1052F0000880C0E9002B7CE711264FF0000859E731
:105300002DE9F04F88460446D21D22F0070191B0E6
:10531000D1E90001CDE90A0100F086FE02460B98B2
:10532000C00F01D02D2007E02068810701D52B2078
:1053300002E0202101EAC000032A099001D0072AD7
:1053400005DB03464146204600F0D6F90BE1207804
:10535000800601D5E06900E00620B8F1650F8146BE
:1053600006D0B8F1660F18D0B8F1670F70D131E0F0
:105370000020B9F1110F009001DB112301E009F1C8
:1053800001030AAA01A90CA8FFF7E4FEDDE90C70ED
:10539000002609F10105834647E001204B460090B5
:1053A0004FF000470AAA01A90CA8FFF7D3FEDDE9D8
:1053B0000DB00C995D46002610B909F101000D18D9
:1053C000B9EB050003D4C0F1FF3609F10105A5EBE7
:1053D00009002BE0B9F1010F01DA4FF001090020BB
:1053E000B9F1110F0090484601DD112300E003469A
:1053F0000AAA01A90CA8FFF7ADFEDDE90C704D4625
:1054000000268346207800070AD4AB4500DA5D46C3
:1054100001A8012D04DD411911F8011C302907D024
:105420004F4502DA17F1040F04DA012082460FE03B
:105430006D1EEEE7002F02DCED1B3E4403E0781CFE
:10544000A84200DD7D1CB81B00F1010A4FF00047A7
:105450002078000703D4AA4501DB4FF0FF3A002172
:10546000B7F1004F0DF143088DF8431024D002200E
:105470002B23002F01DA7F422D230A21021EA0F1E7
:10548000010000DC5FB197FBF1FC97FBF1F201FB3F
:105490001C7C17460CF1300C08F801CDEEE7A8F1A2
:1054A000010003702188090501D5452100E065212F
:1054B000A0F1010800F8011C09980FA9A1EB080749
:1054C000FF1D00B10120411901EBEA70A1693844C8
:1054D000081A401EA0612078C00602D42046FFF7BB
:1054E00069FC099828B1D4E901219047206A401C41
:1054F00020622078C00622D52046FFF75BFC1EE024
:10550000002E04DBB34502DD01A8805D00E0302001
:10551000D4E901219047206A401C2062761CAAF140
:1055200001005FEA000A0AD100F09CF8C068016837
:10553000405CD4E901219047206A401C2062281E6B
:10554000A5F10105DCDC07E0D4E9012118F8010B25
:105550009047206A401C2062381EA7F10107F3DC47
:105560002046FFF73DFC032011B043E601694A1CC9
:1055700002610878704700B58FB0CDE90131002194
:10558000059105497944CDE9031011466846FFF7B6
:1055900061FC0FB000BD0000E5FFFFFF0A6802F8E4
:1055A000010B0A60704710B5436913B1AFF3008077
:1055B00001E0FFF726FC012010BD127800F1240164
:1055C0000A7000224A700122EDE711684FF0FF32A5
:1055D000E9E70000074B70B50D467B44FFF7CBFFB2
:1055E0000446284600F036F910B14FF0FF3070BD88
:1055F000204670BDB3CEFFFF10B5203AC0F00B803F
:10560000B1E81850203AA0E81850B1E81850A0E8C6
:105610001850BFF4F5AF5FEA027C24BFB1E8185020
:10562000A0E8185044BF18C918C0BDE810405FEA90
:10563000827C24BF51F8043B40F8043B08BF70470C
:10564000D20728BF31F8023B48BF11F8012B28BF11
:1056500020F8023B48BF00F8012B70470048704714
:1056600040080020004870476008002030B5B0F1C5
:105670000A024FEA900E71F100034EEA817EB0EB10
:105680000E0061EB91014FEA101E4EEA017E10EB15
:105690000E0041EB11114FEA102E4EEA016E10EB95
:1056A0000E0041EB11214FEA104E4EEA014E10EB75
:1056B0000E0041EB1141401841F100014FEAD000CA
:1056C00040EA41704FEAD10110EB80054FEA8104B6
:1056D00044EA907444EB01046D1944EB0404521B3A
:1056E000A3414FF0000348BF0A3200D530BD401C33
:1056F00041F1000130BD00002DE9F0411F46044694
:1057000003260168072A01F4006004DB08B116A52E
:1057100005E016A503E008B115A500E015A521F0E8
:1057200010002060A069C01EA0610FB1401EA061E2
:105730002046FFF73FFB4FB1D4E90121384690479F
:10574000206A401C2062C01C206206E0206AFAE742
:10575000D4E9012115F8010B9047761EF8D22046B6
:10576000FFF73EFBBDE8F0814E414E006E616E00DA
:10577000494E4600696E66002DE9F047814616469F
:105780008AB0334878440DC88DE80D00304878441D
:10579000801C03AC0DC884E80D0041F69B30084422
:1057A000372190FBF1F290FBF1F5A5F1800501FBAB
:1057B00012041B3C02D56442012000E00020DFF807
:1057C00090A080460027FA44AAF1BE0A0DE0E00747
:1057D00009D03246684607EB47010AEB810100F029
:1057E000EDFA8DE8070064107F1C002CEFD1184FF4
:1057F0007F44AC3F18E0E80714D007EB04100DF12C
:10580000180A90E80E008AE80E00C068F04201D144
:1058100098190890324606A903A800F0CFFA03AB06
:1058200083E807006D10641C002DE4D13246694600
:10583000B8F1000F03A802D000F0ACFA01E000F0CC
:10584000BDFAC9E90001C9F808200AB0BDE8F0872F
:105850007C140000007B00F0800070477546FFF765
:10586000FDFEAE4605006946534620F0070085461A
:1058700018B020B5FAF7C8FCBDE820404FF000068C
:105880004FF000074FF000084FF0000B21F0070128
:10589000AC46ACE8C009ACE8C009ACE8C009ACE86B
:1058A000C0098D4670470446AFF300802046FAF7E2
:1058B00096FC5FEA400C08BF91F0000F4FEA8C2382
:1058C0004FEAC12243EA51514FEA1C5018BF00F57C
:1058D000F0404FEA300018BF41F000415FEA6C5CD5
:1058E00000F02980BCF1FF3F08BF40F080407047C6
:1058F000130C06BF12044FF0100C4FF0000C130EE7
:1059000004BF12020CF1080C130F04BF12010CF1BA
:10591000040C930F04BF92000CF1020CD30F04BFD0
:1059200052000CF1010C11464FF00002A0F11F00D3
:10593000A0EB0C00704711F0004F08BF704731F02A
:1059400000413FF4D5AF0B0C06BF09044FF0100C1B
:105950004FF0000C0B0E04BF09020CF1080C0B0FEA
:1059600004BF09010CF1040C8B0F04BF89000CF17A
:10597000020CCB0F04BF49000CF1010CCCF1200349
:10598000A0EB0C0022FA03F302FA0CF241EA030145
:1059900000F10100704720F07F4C80EA030023F003
:1059A0007F47ACEB070303F57C5300F0004003F1A5
:1059B000FF032DE980494FEA154B09B44FEA144320
:1059C00025EA0B4E24EA03480FF2042606EB1327C0
:1059D00049083E785FEA320203FB0667C7F5000715
:1059E00007FB06F64FEA54374FEAD64606F10206A1
:1059F00007FB066CCCF1005C4FEA1C472CEA074C15
:105A000007FB06F40CFB06F504EB15464FEA961669
:105A100034BF00204FF000404FEAD13706FB07FCAF
:105A20004FEA1C4C0CFB0BF7D21B03FB0CF761EB92
:105A300007010CFB0EF7B0EB074072EB17420CFBB3
:105A400008F734BFA2EB0742B2EB074261EB174104
:105A50004FEA0C444FEA910706FB07FC4FEA1C4C47
:105A60000CFB0BF7B0EBC74072EB573203FB0CF7A4
:105A700034BFA2EBC742B2EBC74261EB57310CFB1C
:105A80000EF7B0EBC70072EB57720CFB08F734BF90
:105A9000A2EBC702B2EBC70261EB5771039F4FEA5B
:105AA000816141EA921104EBCC044FEAD1374FEA0D
:105AB000826206FB07FC42EA90124FEA80604FEADE
:105AC0001C4C0CFB0BF7D21B03FB0CF761EB070123
:105AD0000CFB0EF7B0EB074072EB17420CFB08F71C
